{
  "contractName": "Router",
  "abi": [
    {
      "inputs": [
        {
          "internalType": "address",
          "name": "token",
          "type": "address"
        },
        {
          "internalType": "uint256",
          "name": "amountTokenDesired",
          "type": "uint256"
        },
        {
          "internalType": "uint256",
          "name": "amountTokenMin",
          "type": "uint256"
        },
        {
          "internalType": "uint256",
          "name": "amountETHMin",
          "type": "uint256"
        },
        {
          "internalType": "address",
          "name": "to",
          "type": "address"
        },
        {
          "internalType": "uint256",
          "name": "deadline",
          "type": "uint256"
        }
      ],
      "name": "addLiquidityETH",
      "outputs": [
        {
          "internalType": "uint256",
          "name": "amountToken",
          "type": "uint256"
        },
        {
          "internalType": "uint256",
          "name": "amountETH",
          "type": "uint256"
        },
        {
          "internalType": "uint256",
          "name": "liquidity",
          "type": "uint256"
        }
      ],
      "stateMutability": "payable",
      "type": "function"
    },
    {
      "inputs": [
        {
          "internalType": "uint256",
          "name": "amountOutMin",
          "type": "uint256"
        },
        {
          "internalType": "address[]",
          "name": "path",
          "type": "address[]"
        },
        {
          "internalType": "address",
          "name": "to",
          "type": "address"
        },
        {
          "internalType": "uint256",
          "name": "deadline",
          "type": "uint256"
        }
      ],
      "name": "swapExactETHForTokens",
      "outputs": [
        {
          "internalType": "uint256[]",
          "name": "amounts",
          "type": "uint256[]"
        }
      ],
      "stateMutability": "payable",
      "type": "function"
    },
    {
      "inputs": [
        {
          "internalType": "uint256",
          "name": "amountOut",
          "type": "uint256"
        },
        {
          "internalType": "address[]",
          "name": "path",
          "type": "address[]"
        },
        {
          "internalType": "address",
          "name": "to",
          "type": "address"
        },
        {
          "internalType": "uint256",
          "name": "deadline",
          "type": "uint256"
        }
      ],
      "name": "swapETHForExactTokens",
      "outputs": [
        {
          "internalType": "uint256[]",
          "name": "amounts",
          "type": "uint256[]"
        }
      ],
      "stateMutability": "payable",
      "type": "function"
    },
    {
      "inputs": [
        {
          "internalType": "uint256",
          "name": "amountIn",
          "type": "uint256"
        },
        {
          "internalType": "address[]",
          "name": "path",
          "type": "address[]"
        }
      ],
      "name": "getAmountsOut",
      "outputs": [
        {
          "internalType": "uint256[]",
          "name": "amounts",
          "type": "uint256[]"
        }
      ],
      "stateMutability": "view",
      "type": "function"
    },
    {
      "inputs": [
        {
          "internalType": "uint256",
          "name": "amountOut",
          "type": "uint256"
        },
        {
          "internalType": "address[]",
          "name": "path",
          "type": "address[]"
        }
      ],
      "name": "getAmountsIn",
      "outputs": [
        {
          "internalType": "uint256[]",
          "name": "amounts",
          "type": "uint256[]"
        }
      ],
      "stateMutability": "view",
      "type": "function"
    },
    {
      "inputs": [
        {
          "internalType": "uint256",
          "name": "amountIn",
          "type": "uint256"
        },
        {
          "internalType": "uint256",
          "name": "amountOutMin",
          "type": "uint256"
        },
        {
          "internalType": "address[]",
          "name": "path",
          "type": "address[]"
        },
        {
          "internalType": "address",
          "name": "to",
          "type": "address"
        },
        {
          "internalType": "uint256",
          "name": "deadline",
          "type": "uint256"
        }
      ],
      "name": "swapExactTokensForETHSupportingFeeOnTransferTokens",
      "outputs": [],
      "stateMutability": "view",
      "type": "function"
    },
    {
      "inputs": [
        {
          "internalType": "uint256",
          "name": "amountIn",
          "type": "uint256"
        },
        {
          "internalType": "uint256",
          "name": "amountOutMin",
          "type": "uint256"
        },
        {
          "internalType": "address[]",
          "name": "path",
          "type": "address[]"
        },
        {
          "internalType": "address",
          "name": "to",
          "type": "address"
        },
        {
          "internalType": "uint256",
          "name": "deadline",
          "type": "uint256"
        }
      ],
      "name": "swapExactTokensForETH",
      "outputs": [
        {
          "internalType": "uint256[]",
          "name": "amounts",
          "type": "uint256[]"
        }
      ],
      "stateMutability": "view",
      "type": "function"
    }
  ],
  "bytecode": "0x608060405234801561001057600080fd5b506107cd806100206000396000f3fe6080604052600436106100705760003560e01c80637ff36ab51161004e5780637ff36ab514610376578063d06ca61f14610478578063f305d7191461059c578063fb3bdb411461064a57610070565b806318cbafe5146100755780631f00ca741461018e578063791ac947146102b2575b600080fd5b34801561008157600080fd5b50610137600480360360a081101561009857600080fd5b810190808035906020019092919080359060200190929190803590602001906401000000008111156100c957600080fd5b8201836020820111156100db57600080fd5b803590602001918460208302840111640100000000831117156100fd57600080fd5b9091929391929390803573ffffffffffffffffffffffffffffffffffffffff1690602001909291908035906020019092919050505061074c565b6040518080602001828103825283818151815260200191508051906020019060200280838360005b8381101561017a57808201518184015260208101905061015f565b505050509050019250505060405180910390f35b34801561019a57600080fd5b5061025b600480360360408110156101b157600080fd5b8101908080359060200190929190803590602001906401000000008111156101d857600080fd5b8201836020820111156101ea57600080fd5b8035906020019184602083028401116401000000008311171561020c57600080fd5b919080806020026020016040519081016040528093929190818152602001838360200280828437600081840152601f19601f820116905080830192505050505050509192919290505050610758565b6040518080602001828103825283818151815260200191508051906020019060200280838360005b8381101561029e578082015181840152602081019050610283565b505050509050019250505060405180910390f35b3480156102be57600080fd5b50610374600480360360a08110156102d557600080fd5b8101908080359060200190929190803590602001909291908035906020019064010000000081111561030657600080fd5b82018360208201111561031857600080fd5b8035906020019184602083028401116401000000008311171561033a57600080fd5b9091929391929390803573ffffffffffffffffffffffffffffffffffffffff16906020019092919080359060200190929190505050610760565b005b6104216004803603608081101561038c57600080fd5b8101908080359060200190929190803590602001906401000000008111156103b357600080fd5b8201836020820111156103c557600080fd5b803590602001918460208302840111640100000000831117156103e757600080fd5b9091929391929390803573ffffffffffffffffffffffffffffffffffffffff16906020019092919080359060200190929190505050610768565b6040518080602001828103825283818151815260200191508051906020019060200280838360005b83811015610464578082015181840152602081019050610449565b505050509050019250505060405180910390f35b34801561048457600080fd5b506105456004803603604081101561049b57600080fd5b8101908080359060200190929190803590602001906401000000008111156104c257600080fd5b8201836020820111156104d457600080fd5b803590602001918460208302840111640100000000831117156104f657600080fd5b919080806020026020016040519081016040528093929190818152602001838360200280828437600081840152601f19601f820116905080830192505050505050509192919290505050610773565b6040518080602001828103825283818151815260200191508051906020019060200280838360005b8381101561058857808201518184015260208101905061056d565b505050509050019250505060405180910390f35b610626600480360360c08110156105b257600080fd5b81019080803573ffffffffffffffffffffffffffffffffffffffff169060200190929190803590602001909291908035906020019092919080359060200190929190803573ffffffffffffffffffffffffffffffffffffffff1690602001909291908035906020019092919050505061077b565b60405180848152602001838152602001828152602001935050505060405180910390f35b6106f56004803603608081101561066057600080fd5b81019080803590602001909291908035906020019064010000000081111561068757600080fd5b82018360208201111561069957600080fd5b803590602001918460208302840111640100000000831117156106bb57600080fd5b9091929391929390803573ffffffffffffffffffffffffffffffffffffffff1690602001909291908035906020019092919050505061078c565b6040518080602001828103825283818151815260200191508051906020019060200280838360005b8381101561073857808201518184015260208101905061071d565b505050509050019250505060405180910390f35b60609695505050505050565b606092915050565b505050505050565b606095945050505050565b606092915050565b600080600096509650969350505050565b60609594505050505056fea264697066735822122095523bb8b0ea88313a4f023454913b955fabef7eb11c94a4dec57eec153ddad264736f6c634300060c0033",
  "immutableReferences": {},
  "source": "pragma solidity ^0.6.12;\n\ncontract Router {\n\tfunction addLiquidityETH(\n        address token,\n        uint amountTokenDesired,\n        uint amountTokenMin,\n        uint amountETHMin,\n        address to,\n        uint deadline\n    ) external payable returns (uint amountToken, uint amountETH, uint liquidity) {}\n    \n    \n     function swapExactETHForTokens(\n     \tuint amountOutMin, \n     \taddress[] calldata path, \n     \taddress to, \n     \tuint deadline\n     \t) external payable returns (uint[] memory amounts) {}\n    \n    function swapETHForExactTokens(\n     \tuint amountOut,\n     \taddress[] calldata path,\n     \taddress to, \n     \tuint deadline\n     ) external payable returns (uint[] memory amounts) {}\n     \n     \n     \n    function getAmountsOut(\n     \tuint amountIn, \n     \taddress[] memory path\n     ) external view  returns (uint[] memory amounts) {}\n\n    function getAmountsIn(\n     \tuint amountOut, \n     \taddress[] memory path\n     ) external view  returns (uint[] memory amounts) {}\n\n\n     \n   function swapExactTokensForETHSupportingFeeOnTransferTokens(\n        uint amountIn,\n        uint amountOutMin,\n        address[] calldata path,\n        address to,\n        uint deadline\n    ) external view {}     \n    \n     \n   function swapExactTokensForETH(\n        uint amountIn,\n        uint amountOutMin,\n        address[] calldata path,\n        address to,\n        uint deadline\n    ) external view returns (uint[] memory amounts) {}\n     \n  \n        \n     \n}\n\n\n\n",
  "sourcePath": "/Users/pilu/Desktop/Data/BSC SC/StrongHODL_test1/contracts/Router.sol",
  "compiler": {
    "name": "solc",
    "version": "0.6.12+commit.27d51765.Emscripten.clang"
  },
  "schemaVersion": "3.4.5",
  "updatedAt": "2022-04-06T08:11:24.928Z",
  "devdoc": {
    "kind": "dev",
    "methods": {},
    "version": 1
  },
  "userdoc": {
    "kind": "user",
    "methods": {},
    "version": 1
  }
}