{
  "contractName": "strongHODL",
  "abi": [
    {
      "inputs": [],
      "stateMutability": "nonpayable",
      "type": "constructor"
    },
    {
      "anonymous": false,
      "inputs": [
        {
          "indexed": true,
          "internalType": "address",
          "name": "owner",
          "type": "address"
        },
        {
          "indexed": true,
          "internalType": "address",
          "name": "spender",
          "type": "address"
        },
        {
          "indexed": false,
          "internalType": "uint256",
          "name": "value",
          "type": "uint256"
        }
      ],
      "name": "Approval",
      "type": "event"
    },
    {
      "anonymous": false,
      "inputs": [
        {
          "indexed": false,
          "internalType": "uint256",
          "name": "bnbUsed",
          "type": "uint256"
        }
      ],
      "name": "BNBBuyBack",
      "type": "event"
    },
    {
      "anonymous": false,
      "inputs": [
        {
          "indexed": false,
          "internalType": "bool",
          "name": "enabled",
          "type": "bool"
        }
      ],
      "name": "BuyBackEnabledUpdated",
      "type": "event"
    },
    {
      "anonymous": false,
      "inputs": [
        {
          "indexed": true,
          "internalType": "address",
          "name": "previousOwner",
          "type": "address"
        },
        {
          "indexed": true,
          "internalType": "address",
          "name": "newOwner",
          "type": "address"
        }
      ],
      "name": "OwnershipTransferred",
      "type": "event"
    },
    {
      "anonymous": false,
      "inputs": [
        {
          "indexed": false,
          "internalType": "uint256",
          "name": "tokensSwapped",
          "type": "uint256"
        },
        {
          "indexed": false,
          "internalType": "uint256",
          "name": "bnbReceived",
          "type": "uint256"
        },
        {
          "indexed": false,
          "internalType": "uint256",
          "name": "tokensIntoLiqudity",
          "type": "uint256"
        }
      ],
      "name": "SwapAndLiquify",
      "type": "event"
    },
    {
      "anonymous": false,
      "inputs": [
        {
          "indexed": false,
          "internalType": "bool",
          "name": "enabled",
          "type": "bool"
        }
      ],
      "name": "SwapAndLiquifyEnabledUpdated",
      "type": "event"
    },
    {
      "anonymous": false,
      "inputs": [
        {
          "indexed": true,
          "internalType": "address",
          "name": "from",
          "type": "address"
        },
        {
          "indexed": true,
          "internalType": "address",
          "name": "to",
          "type": "address"
        },
        {
          "indexed": false,
          "internalType": "uint256",
          "name": "value",
          "type": "uint256"
        }
      ],
      "name": "Transfer",
      "type": "event"
    },
    {
      "inputs": [],
      "name": "BuyBackEnabled",
      "outputs": [
        {
          "internalType": "bool",
          "name": "",
          "type": "bool"
        }
      ],
      "stateMutability": "view",
      "type": "function"
    },
    {
      "inputs": [],
      "name": "_buyerFee",
      "outputs": [
        {
          "internalType": "uint256",
          "name": "",
          "type": "uint256"
        }
      ],
      "stateMutability": "view",
      "type": "function"
    },
    {
      "inputs": [],
      "name": "_maxTxAmount",
      "outputs": [
        {
          "internalType": "uint256",
          "name": "",
          "type": "uint256"
        }
      ],
      "stateMutability": "view",
      "type": "function"
    },
    {
      "inputs": [],
      "name": "_sellerFee",
      "outputs": [
        {
          "internalType": "uint256",
          "name": "",
          "type": "uint256"
        }
      ],
      "stateMutability": "view",
      "type": "function"
    },
    {
      "inputs": [],
      "name": "geUnlockTime",
      "outputs": [
        {
          "internalType": "uint256",
          "name": "",
          "type": "uint256"
        }
      ],
      "stateMutability": "view",
      "type": "function"
    },
    {
      "inputs": [
        {
          "internalType": "uint256",
          "name": "time",
          "type": "uint256"
        }
      ],
      "name": "lock",
      "outputs": [],
      "stateMutability": "nonpayable",
      "type": "function"
    },
    {
      "inputs": [],
      "name": "owner",
      "outputs": [
        {
          "internalType": "address",
          "name": "",
          "type": "address"
        }
      ],
      "stateMutability": "view",
      "type": "function"
    },
    {
      "inputs": [],
      "name": "pancakeswapV2Pair",
      "outputs": [
        {
          "internalType": "address",
          "name": "",
          "type": "address"
        }
      ],
      "stateMutability": "view",
      "type": "function"
    },
    {
      "inputs": [],
      "name": "pancakeswapV2Router",
      "outputs": [
        {
          "internalType": "contract IPancakeRouter02",
          "name": "",
          "type": "address"
        }
      ],
      "stateMutability": "view",
      "type": "function"
    },
    {
      "inputs": [],
      "name": "renounceOwnership",
      "outputs": [],
      "stateMutability": "nonpayable",
      "type": "function"
    },
    {
      "inputs": [],
      "name": "swapAndLiquifyEnabled",
      "outputs": [
        {
          "internalType": "bool",
          "name": "",
          "type": "bool"
        }
      ],
      "stateMutability": "view",
      "type": "function"
    },
    {
      "inputs": [
        {
          "internalType": "address",
          "name": "newOwner",
          "type": "address"
        }
      ],
      "name": "transferOwnership",
      "outputs": [],
      "stateMutability": "nonpayable",
      "type": "function"
    },
    {
      "inputs": [],
      "name": "unlock",
      "outputs": [],
      "stateMutability": "nonpayable",
      "type": "function"
    },
    {
      "stateMutability": "payable",
      "type": "receive"
    },
    {
      "inputs": [],
      "name": "addLiquiditySimu",
      "outputs": [],
      "stateMutability": "payable",
      "type": "function"
    },
    {
      "inputs": [],
      "name": "getPairAddress",
      "outputs": [
        {
          "internalType": "address",
          "name": "",
          "type": "address"
        }
      ],
      "stateMutability": "view",
      "type": "function"
    },
    {
      "inputs": [],
      "name": "balanceBNB",
      "outputs": [
        {
          "internalType": "uint256",
          "name": "",
          "type": "uint256"
        }
      ],
      "stateMutability": "view",
      "type": "function"
    },
    {
      "inputs": [],
      "name": "name",
      "outputs": [
        {
          "internalType": "string",
          "name": "",
          "type": "string"
        }
      ],
      "stateMutability": "pure",
      "type": "function"
    },
    {
      "inputs": [],
      "name": "symbol",
      "outputs": [
        {
          "internalType": "string",
          "name": "",
          "type": "string"
        }
      ],
      "stateMutability": "pure",
      "type": "function"
    },
    {
      "inputs": [],
      "name": "decimals",
      "outputs": [
        {
          "internalType": "uint8",
          "name": "",
          "type": "uint8"
        }
      ],
      "stateMutability": "pure",
      "type": "function"
    },
    {
      "inputs": [],
      "name": "totalSupply",
      "outputs": [
        {
          "internalType": "uint256",
          "name": "",
          "type": "uint256"
        }
      ],
      "stateMutability": "view",
      "type": "function"
    },
    {
      "inputs": [
        {
          "internalType": "address",
          "name": "account",
          "type": "address"
        }
      ],
      "name": "balanceOf",
      "outputs": [
        {
          "internalType": "uint256",
          "name": "",
          "type": "uint256"
        }
      ],
      "stateMutability": "view",
      "type": "function"
    },
    {
      "inputs": [
        {
          "internalType": "address",
          "name": "recipient",
          "type": "address"
        },
        {
          "internalType": "uint256",
          "name": "amount",
          "type": "uint256"
        }
      ],
      "name": "transfer",
      "outputs": [
        {
          "internalType": "bool",
          "name": "",
          "type": "bool"
        }
      ],
      "stateMutability": "nonpayable",
      "type": "function"
    },
    {
      "inputs": [
        {
          "internalType": "address",
          "name": "owner",
          "type": "address"
        },
        {
          "internalType": "address",
          "name": "spender",
          "type": "address"
        }
      ],
      "name": "allowance",
      "outputs": [
        {
          "internalType": "uint256",
          "name": "",
          "type": "uint256"
        }
      ],
      "stateMutability": "view",
      "type": "function"
    },
    {
      "inputs": [
        {
          "internalType": "address",
          "name": "spender",
          "type": "address"
        },
        {
          "internalType": "uint256",
          "name": "amount",
          "type": "uint256"
        }
      ],
      "name": "approve",
      "outputs": [
        {
          "internalType": "bool",
          "name": "",
          "type": "bool"
        }
      ],
      "stateMutability": "nonpayable",
      "type": "function"
    },
    {
      "inputs": [
        {
          "internalType": "address",
          "name": "sender",
          "type": "address"
        },
        {
          "internalType": "address",
          "name": "recipient",
          "type": "address"
        },
        {
          "internalType": "uint256",
          "name": "amount",
          "type": "uint256"
        }
      ],
      "name": "transferFrom",
      "outputs": [
        {
          "internalType": "bool",
          "name": "",
          "type": "bool"
        }
      ],
      "stateMutability": "nonpayable",
      "type": "function"
    },
    {
      "inputs": [
        {
          "internalType": "address",
          "name": "spender",
          "type": "address"
        },
        {
          "internalType": "uint256",
          "name": "addedValue",
          "type": "uint256"
        }
      ],
      "name": "increaseAllowance",
      "outputs": [
        {
          "internalType": "bool",
          "name": "",
          "type": "bool"
        }
      ],
      "stateMutability": "nonpayable",
      "type": "function"
    },
    {
      "inputs": [
        {
          "internalType": "address",
          "name": "spender",
          "type": "address"
        },
        {
          "internalType": "uint256",
          "name": "subtractedValue",
          "type": "uint256"
        }
      ],
      "name": "decreaseAllowance",
      "outputs": [
        {
          "internalType": "bool",
          "name": "",
          "type": "bool"
        }
      ],
      "stateMutability": "nonpayable",
      "type": "function"
    },
    {
      "inputs": [],
      "name": "getNumberOfhodler",
      "outputs": [
        {
          "internalType": "uint256",
          "name": "",
          "type": "uint256"
        }
      ],
      "stateMutability": "view",
      "type": "function"
    },
    {
      "inputs": [],
      "name": "getAmountForLiquidity",
      "outputs": [
        {
          "internalType": "uint256",
          "name": "",
          "type": "uint256"
        }
      ],
      "stateMutability": "view",
      "type": "function"
    },
    {
      "inputs": [],
      "name": "getAmountForBurn",
      "outputs": [
        {
          "internalType": "uint256",
          "name": "",
          "type": "uint256"
        }
      ],
      "stateMutability": "view",
      "type": "function"
    },
    {
      "inputs": [
        {
          "internalType": "address",
          "name": "sender",
          "type": "address"
        },
        {
          "internalType": "uint256",
          "name": "amount",
          "type": "uint256"
        }
      ],
      "name": "_burn",
      "outputs": [],
      "stateMutability": "nonpayable",
      "type": "function"
    },
    {
      "inputs": [],
      "name": "totalFees",
      "outputs": [
        {
          "internalType": "uint256",
          "name": "",
          "type": "uint256"
        }
      ],
      "stateMutability": "view",
      "type": "function"
    },
    {
      "inputs": [],
      "name": "totalBuyerFees",
      "outputs": [
        {
          "internalType": "uint256",
          "name": "",
          "type": "uint256"
        }
      ],
      "stateMutability": "view",
      "type": "function"
    },
    {
      "inputs": [],
      "name": "totalSellerFees",
      "outputs": [
        {
          "internalType": "uint256",
          "name": "",
          "type": "uint256"
        }
      ],
      "stateMutability": "view",
      "type": "function"
    },
    {
      "inputs": [],
      "name": "totalBurn",
      "outputs": [
        {
          "internalType": "uint256",
          "name": "",
          "type": "uint256"
        }
      ],
      "stateMutability": "view",
      "type": "function"
    },
    {
      "inputs": [
        {
          "internalType": "bool",
          "name": "dxSale",
          "type": "bool"
        }
      ],
      "name": "setDXSale",
      "outputs": [],
      "stateMutability": "nonpayable",
      "type": "function"
    },
    {
      "inputs": [
        {
          "internalType": "uint256",
          "name": "rAmount",
          "type": "uint256"
        }
      ],
      "name": "tokenFromReflection",
      "outputs": [
        {
          "internalType": "uint256",
          "name": "",
          "type": "uint256"
        }
      ],
      "stateMutability": "view",
      "type": "function"
    },
    {
      "inputs": [
        {
          "internalType": "address",
          "name": "account",
          "type": "address"
        }
      ],
      "name": "excludeFromReward",
      "outputs": [],
      "stateMutability": "nonpayable",
      "type": "function"
    },
    {
      "inputs": [
        {
          "internalType": "address",
          "name": "account",
          "type": "address"
        }
      ],
      "name": "includeInReward",
      "outputs": [],
      "stateMutability": "nonpayable",
      "type": "function"
    },
    {
      "inputs": [
        {
          "internalType": "address",
          "name": "account",
          "type": "address"
        }
      ],
      "name": "isExcludedFromReward",
      "outputs": [
        {
          "internalType": "bool",
          "name": "",
          "type": "bool"
        }
      ],
      "stateMutability": "view",
      "type": "function"
    },
    {
      "inputs": [
        {
          "internalType": "address",
          "name": "account",
          "type": "address"
        }
      ],
      "name": "excludeFromFee",
      "outputs": [],
      "stateMutability": "nonpayable",
      "type": "function"
    },
    {
      "inputs": [
        {
          "internalType": "address",
          "name": "account",
          "type": "address"
        }
      ],
      "name": "includeInFee",
      "outputs": [],
      "stateMutability": "nonpayable",
      "type": "function"
    },
    {
      "inputs": [
        {
          "internalType": "address",
          "name": "account",
          "type": "address"
        }
      ],
      "name": "isExcludedFromFee",
      "outputs": [
        {
          "internalType": "bool",
          "name": "",
          "type": "bool"
        }
      ],
      "stateMutability": "view",
      "type": "function"
    },
    {
      "inputs": [
        {
          "internalType": "uint256",
          "name": "maxTxPercent",
          "type": "uint256"
        }
      ],
      "name": "setMaxTxPercent",
      "outputs": [],
      "stateMutability": "nonpayable",
      "type": "function"
    },
    {
      "inputs": [
        {
          "internalType": "uint256",
          "name": "buyerFee",
          "type": "uint256"
        }
      ],
      "name": "setBuyerFee",
      "outputs": [],
      "stateMutability": "nonpayable",
      "type": "function"
    },
    {
      "inputs": [
        {
          "internalType": "uint256",
          "name": "sellerFee",
          "type": "uint256"
        }
      ],
      "name": "setSellerFee",
      "outputs": [],
      "stateMutability": "nonpayable",
      "type": "function"
    },
    {
      "inputs": [
        {
          "internalType": "bool",
          "name": "_enabled",
          "type": "bool"
        }
      ],
      "name": "setSwapAndLiquifyEnabled",
      "outputs": [],
      "stateMutability": "nonpayable",
      "type": "function"
    },
    {
      "inputs": [
        {
          "internalType": "bool",
          "name": "_enabled",
          "type": "bool"
        }
      ],
      "name": "setBuyBackEnabled",
      "outputs": [],
      "stateMutability": "nonpayable",
      "type": "function"
    }
  ],
  "bytecode": "0x60c060405269021e19e0c9bab2400000600355600354600019816200002057fe5b0660001903600455670de0b6b3a76400006005556014600c55600c54600d556028600f55600f546010556000601360006101000a81548160ff0219169083151502179055506001601360026101000a81548160ff0219169083151502179055506000601455600060155560006016556001601760016101000a81548160ff0219169083151502179055506000601855348015620000bc57600080fd5b506000620000cf6200061060201b60201c565b9050806000806101000a81548173ffffffffffffffffffffffffffffffffffffffff021916908373ffffffffffffffffffffffffffffffffffffffff1602179055508073ffffffffffffffffffffffffffffffffffffffff16600073ffffffffffffffffffffffffffffffffffffffff167f8be0079c531659141344cd1fd0a4f28419497f9722a3daafe3b4186f6b6457e060405160405180910390a35060045460066000620001846200061060201b60201c565b73ffffffffffffffffffffffffffffffffffffffff1673ffffffffffffffffffffffffffffffffffffffff1681526020019081526020016000208190555060007310ed43c718714eb63d5aa57b78b54704e256024e90508073ffffffffffffffffffffffffffffffffffffffff1663c45a01556040518163ffffffff1660e01b815260040160206040518083038186803b1580156200022257600080fd5b505afa15801562000237573d6000803e3d6000fd5b505050506040513d60208110156200024e57600080fd5b810190808051906020019092919050505073ffffffffffffffffffffffffffffffffffffffff1663c9c65396308373ffffffffffffffffffffffffffffffffffffffff1663ad5c46486040518163ffffffff1660e01b815260040160206040518083038186803b158015620002c257600080fd5b505afa158015620002d7573d6000803e3d6000fd5b505050506040513d6020811015620002ee57600080fd5b81019080805190602001909291905050506040518363ffffffff1660e01b8152600401808373ffffffffffffffffffffffffffffffffffffffff1681526020018273ffffffffffffffffffffffffffffffffffffffff16815260200192505050602060405180830381600087803b1580156200036957600080fd5b505af11580156200037e573d6000803e3d6000fd5b505050506040513d60208110156200039557600080fd5b810190808051906020019092919050505073ffffffffffffffffffffffffffffffffffffffff1660a08173ffffffffffffffffffffffffffffffffffffffff1660601b815250508073ffffffffffffffffffffffffffffffffffffffff1660808173ffffffffffffffffffffffffffffffffffffffff1660601b8152505062000433620004276200061860201b60201c565b6200064160201b60201c565b62000444306200064160201b60201c565b620004697331415926535897932384626433832795028841976200064160201b60201c565b620004896200047d6200061860201b60201c565b6200076d60201b60201c565b6200049a306200076d60201b60201c565b620004bf7331415926535897932384626433832795028841976200076d60201b60201c565b69014542ba12a337c000006014819055506000620004f869014542ba12a337c0000060035462000a9a60201b620033531790919060201c565b905080600760006200050f6200061860201b60201c565b73ffffffffffffffffffffffffffffffffffffffff1673ffffffffffffffffffffffffffffffffffffffff16815260200190815260200160002081905550601454600760003073ffffffffffffffffffffffffffffffffffffffff1673ffffffffffffffffffffffffffffffffffffffff16815260200190815260200160002081905550620005a36200061860201b60201c565b73ffffffffffffffffffffffffffffffffffffffff16600073ffffffffffffffffffffffffffffffffffffffff167fddf252ad1be2c89b69c2b068fc378daa952ba7f163c4a11628f55a4df523b3ef836040518082815260200191505060405180910390a350506200104d565b600033905090565b60008060009054906101000a900473ffffffffffffffffffffffffffffffffffffffff16905090565b620006516200061060201b60201c565b73ffffffffffffffffffffffffffffffffffffffff1660008054906101000a900473ffffffffffffffffffffffffffffffffffffffff1673ffffffffffffffffffffffffffffffffffffffff161462000712576040517f08c379a00000000000000000000000000000000000000000000000000000000081526004018080602001828103825260208152602001807f4f776e61626c653a2063616c6c6572206973206e6f7420746865206f776e657281525060200191505060405180910390fd5b6001600960008373ffffffffffffffffffffffffffffffffffffffff1673ffffffffffffffffffffffffffffffffffffffff16815260200190815260200160002060006101000a81548160ff02191690831515021790555050565b6200077d6200061060201b60201c565b73ffffffffffffffffffffffffffffffffffffffff1660008054906101000a900473ffffffffffffffffffffffffffffffffffffffff1673ffffffffffffffffffffffffffffffffffffffff16146200083e576040517f08c379a00000000000000000000000000000000000000000000000000000000081526004018080602001828103825260208152602001807f4f776e61626c653a2063616c6c6572206973206e6f7420746865206f776e657281525060200191505060405180910390fd5b600a60008273ffffffffffffffffffffffffffffffffffffffff1673ffffffffffffffffffffffffffffffffffffffff16815260200190815260200160002060009054906101000a900460ff1615620008ff576040517f08c379a000000000000000000000000000000000000000000000000000000000815260040180806020018281038252601b8152602001807f4163636f756e7420697320616c7265616479206578636c75646564000000000081525060200191505060405180910390fd5b6000600660008373ffffffffffffffffffffffffffffffffffffffff1673ffffffffffffffffffffffffffffffffffffffff168152602001908152602001600020541115620009dc5762000998600660008373ffffffffffffffffffffffffffffffffffffffff1673ffffffffffffffffffffffffffffffffffffffff1681526020019081526020016000205462000aec60201b60201c565b600760008373ffffffffffffffffffffffffffffffffffffffff1673ffffffffffffffffffffffffffffffffffffffff168152602001908152602001600020819055505b6001600a60008373ffffffffffffffffffffffffffffffffffffffff1673ffffffffffffffffffffffffffffffffffffffff16815260200190815260200160002060006101000a81548160ff021916908315150217905550600b819080600181540180825580915050600190039060005260206000200160009091909190916101000a81548173ffffffffffffffffffffffffffffffffffffffff021916908373ffffffffffffffffffffffffffffffffffffffff16021790555050565b600062000ae483836040518060400160405280601e81526020017f536166654d6174683a207375627472616374696f6e206f766572666c6f77000081525062000b8160201b60201c565b905092915050565b600060045482111562000b4b576040517f08c379a000000000000000000000000000000000000000000000000000000000815260040180806020018281038252602a8152602001806200662c602a913960400191505060405180910390fd5b600062000b5d62000c4560201b60201c565b905062000b79818462000c7f60201b6200339d1790919060201c565b915050919050565b600083831115829062000c32576040517f08c379a00000000000000000000000000000000000000000000000000000000081526004018080602001828103825283818151815260200191508051906020019080838360005b8381101562000bf657808201518184015260208101905062000bd9565b50505050905090810190601f16801562000c245780820380516001836020036101000a031916815260200191505b509250505060405180910390fd5b5060008385039050809150509392505050565b600080600062000c5a62000cd160201b60201c565b9150915062000c78818362000c7f60201b6200339d1790919060201c565b9250505090565b600062000cc983836040518060400160405280601a81526020017f536166654d6174683a206469766973696f6e206279207a65726f00000000000081525062000f8260201b60201c565b905092915050565b600080600060045490506000600354905060005b600b8054905081101562000f3c578260066000600b848154811062000d0657fe5b9060005260206000200160009054906101000a900473ffffffffffffffffffffffffffffffffffffffff1673ffffffffffffffffffffffffffffffffffffffff1673ffffffffffffffffffffffffffffffffffffffff16815260200190815260200160002054118062000def57508160076000600b848154811062000d8757fe5b9060005260206000200160009054906101000a900473ffffffffffffffffffffffffffffffffffffffff1673ffffffffffffffffffffffffffffffffffffffff1673ffffffffffffffffffffffffffffffffffffffff16815260200190815260200160002054115b1562000e08576004546003549450945050505062000f7e565b62000e9960066000600b848154811062000e1e57fe5b9060005260206000200160009054906101000a900473ffffffffffffffffffffffffffffffffffffffff1673ffffffffffffffffffffffffffffffffffffffff1673ffffffffffffffffffffffffffffffffffffffff168152602001908152602001600020548462000a9a60201b620033531790919060201c565b925062000f2c60076000600b848154811062000eb157fe5b9060005260206000200160009054906101000a900473ffffffffffffffffffffffffffffffffffffffff1673ffffffffffffffffffffffffffffffffffffffff1673ffffffffffffffffffffffffffffffffffffffff168152602001908152602001600020548362000a9a60201b620033531790919060201c565b9150808060010191505062000ce5565b5062000f5b60035460045462000c7f60201b6200339d1790919060201c565b82101562000f755760045460035493509350505062000f7e565b81819350935050505b9091565b6000808311829062001032576040517f08c379a00000000000000000000000000000000000000000000000000000000081526004018080602001828103825283818151815260200191508051906020019080838360005b8381101562000ff657808201518184015260208101905062000fd9565b50505050905090810190601f168015620010245780820380516001836020036101000a031916815260200191505b509250505060405180910390fd5b5060008385816200103f57fe5b049050809150509392505050565b60805160601c60a05160601c615583620010a960003980611e0a52806123155280613ac052508061278152806127a85280612d7352806142245280614ab75280614ba35280614bca5280614cd55280614cfc52506155836000f3fe6080604052600436106102975760003560e01c8063737f57ea1161015a578063b75f2c30116100c1578063dd62ed3e1161007a578063dd62ed3e14610dd7578063e5dffed314610e5c578063ea2f0b3714610e9d578063f2fde38b14610eee578063f82e777714610f3f578063fa7da19d14610f6a5761029e565b8063b75f2c3014610cc2578063b782b11a14610ccc578063c49b9a8014610cf9578063c9b9be3d14610d36578063d543dbeb14610d61578063dd46706414610d9c5761029e565b80639572253d116101135780639572253d14610ae357806395d89b4114610b0e578063a457c2d714610b9e578063a69df4b514610c0f578063a9059cbb14610c26578063b6c5232414610c975761029e565b8063737f57ea146109675780637d1db4a5146109a457806388a6fa29146109cf57806388f82020146109fa5780638d5f81e214610a615780638da5cb5b14610aa25761029e565b8063313ce567116101fe57806352390c02116101b757806352390c021461079757806352892884146107e85780635342acb4146108295780636161eb181461089057806370a08231146108eb578063715018a6146109505761029e565b8063313ce567146105fe5780633685d4191461062c578063395093511461067d5780633c9f861d146106ee578063437823ec146107195780634a74bb021461076a5761029e565b806313114a9d1161025057806313114a9d1461045057806318160ddd1461047b5780631bfee121146104a657806323b872dd146104e157806329370cc6146105725780632d838119146105af5761029e565b806301073b0f146102a35780630554cd66146102ce57806306fdde03146102f9578063095ea7b3146103895780630b04fffe146103fa5780630c2191bf146104255761029e565b3661029e57005b600080fd5b3480156102af57600080fd5b506102b8610fa5565b6040518082815260200191505060405180910390f35b3480156102da57600080fd5b506102e3610faf565b6040518082815260200191505060405180910390f35b34801561030557600080fd5b5061030e610fb9565b6040518080602001828103825283818151815260200191508051906020019080838360005b8381101561034e578082015181840152602081019050610333565b50505050905090810190601f16801561037b5780820380516001836020036101000a031916815260200191505b509250505060405180910390f35b34801561039557600080fd5b506103e2600480360360408110156103ac57600080fd5b81019080803573ffffffffffffffffffffffffffffffffffffffff16906020019092919080359060200190929190505050610ff6565b60405180821515815260200191505060405180910390f35b34801561040657600080fd5b5061040f611014565b6040518082815260200191505060405180910390f35b34801561043157600080fd5b5061043a61101c565b6040518082815260200191505060405180910390f35b34801561045c57600080fd5b50610465611026565b6040518082815260200191505060405180910390f35b34801561048757600080fd5b50610490611030565b6040518082815260200191505060405180910390f35b3480156104b257600080fd5b506104df600480360360208110156104c957600080fd5b810190808035906020019092919050505061103a565b005b3480156104ed57600080fd5b5061055a6004803603606081101561050457600080fd5b81019080803573ffffffffffffffffffffffffffffffffffffffff169060200190929190803573ffffffffffffffffffffffffffffffffffffffff1690602001909291908035906020019092919050505061111a565b60405180821515815260200191505060405180910390f35b34801561057e57600080fd5b506105ad6004803603602081101561059557600080fd5b8101908080351515906020019092919050505061121c565b005b3480156105bb57600080fd5b506105e8600480360360208110156105d257600080fd5b810190808035906020019092919050505061133a565b6040518082815260200191505060405180910390f35b34801561060a57600080fd5b506106136113be565b604051808260ff16815260200191505060405180910390f35b34801561063857600080fd5b5061067b6004803603602081101561064f57600080fd5b81019080803573ffffffffffffffffffffffffffffffffffffffff1690602001909291905050506113c7565b005b34801561068957600080fd5b506106d6600480360360408110156106a057600080fd5b81019080803573ffffffffffffffffffffffffffffffffffffffff169060200190929190803590602001909291905050506118fb565b60405180821515815260200191505060405180910390f35b3480156106fa57600080fd5b506107036119ae565b6040518082815260200191505060405180910390f35b34801561072557600080fd5b506107686004803603602081101561073c57600080fd5b81019080803573ffffffffffffffffffffffffffffffffffffffff1690602001909291905050506119b8565b005b34801561077657600080fd5b5061077f611adb565b60405180821515815260200191505060405180910390f35b3480156107a357600080fd5b506107e6600480360360208110156107ba57600080fd5b81019080803573ffffffffffffffffffffffffffffffffffffffff169060200190929190505050611aee565b005b3480156107f457600080fd5b506107fd611e08565b604051808273ffffffffffffffffffffffffffffffffffffffff16815260200191505060405180910390f35b34801561083557600080fd5b506108786004803603602081101561084c57600080fd5b81019080803573ffffffffffffffffffffffffffffffffffffffff169060200190929190505050611e2c565b60405180821515815260200191505060405180910390f35b34801561089c57600080fd5b506108e9600480360360408110156108b357600080fd5b81019080803573ffffffffffffffffffffffffffffffffffffffff16906020019092919080359060200190929190505050611e82565b005b3480156108f757600080fd5b5061093a6004803603602081101561090e57600080fd5b81019080803573ffffffffffffffffffffffffffffffffffffffff169060200190929190505050611f59565b6040518082815260200191505060405180910390f35b34801561095c57600080fd5b50610965612044565b005b34801561097357600080fd5b506109a26004803603602081101561098a57600080fd5b810190808035151590602001909291905050506121ca565b005b3480156109b057600080fd5b506109b96122af565b6040518082815260200191505060405180910390f35b3480156109db57600080fd5b506109e46122b5565b6040518082815260200191505060405180910390f35b348015610a0657600080fd5b50610a4960048036036020811015610a1d57600080fd5b81019080803573ffffffffffffffffffffffffffffffffffffffff1690602001909291905050506122bb565b60405180821515815260200191505060405180910390f35b348015610a6d57600080fd5b50610a76612311565b604051808273ffffffffffffffffffffffffffffffffffffffff16815260200191505060405180910390f35b348015610aae57600080fd5b50610ab7612339565b604051808273ffffffffffffffffffffffffffffffffffffffff16815260200191505060405180910390f35b348015610aef57600080fd5b50610af8612362565b6040518082815260200191505060405180910390f35b348015610b1a57600080fd5b50610b2361236c565b6040518080602001828103825283818151815260200191508051906020019080838360005b83811015610b63578082015181840152602081019050610b48565b50505050905090810190601f168015610b905780820380516001836020036101000a031916815260200191505b509250505060405180910390f35b348015610baa57600080fd5b50610bf760048036036040811015610bc157600080fd5b81019080803573ffffffffffffffffffffffffffffffffffffffff169060200190929190803590602001909291905050506123a9565b60405180821515815260200191505060405180910390f35b348015610c1b57600080fd5b50610c24612476565b005b348015610c3257600080fd5b50610c7f60048036036040811015610c4957600080fd5b81019080803573ffffffffffffffffffffffffffffffffffffffff16906020019092919080359060200190929190505050612693565b60405180821515815260200191505060405180910390f35b348015610ca357600080fd5b50610cac6126e8565b6040518082815260200191505060405180910390f35b610cca6126f2565b005b348015610cd857600080fd5b50610ce16128c5565b60405180821515815260200191505060405180910390f35b348015610d0557600080fd5b50610d3460048036036020811015610d1c57600080fd5b810190808035151590602001909291905050506128d8565b005b348015610d4257600080fd5b50610d4b6129f6565b6040518082815260200191505060405180910390f35b348015610d6d57600080fd5b50610d9a60048036036020811015610d8457600080fd5b8101908080359060200190929190505050612a00565b005b348015610da857600080fd5b50610dd560048036036020811015610dbf57600080fd5b8101908080359060200190929190505050612af9565b005b348015610de357600080fd5b50610e4660048036036040811015610dfa57600080fd5b81019080803573ffffffffffffffffffffffffffffffffffffffff169060200190929190803573ffffffffffffffffffffffffffffffffffffffff169060200190929190505050612cea565b6040518082815260200191505060405180910390f35b348015610e6857600080fd5b50610e71612d71565b604051808273ffffffffffffffffffffffffffffffffffffffff16815260200191505060405180910390f35b348015610ea957600080fd5b50610eec60048036036020811015610ec057600080fd5b81019080803573ffffffffffffffffffffffffffffffffffffffff169060200190929190505050612d95565b005b348015610efa57600080fd5b50610f3d60048036036020811015610f1157600080fd5b81019080803573ffffffffffffffffffffffffffffffffffffffff169060200190929190505050613062565b005b348015610f4b57600080fd5b50610f5461326d565b6040518082815260200191505060405180910390f35b348015610f7657600080fd5b50610fa360048036036020811015610f8d57600080fd5b8101908080359060200190929190505050613273565b005b6000601454905090565b6000601554905090565b60606040518060400160405280600981526020017f54657374436f696e320000000000000000000000000000000000000000000000815250905090565b600061100a6110036133e7565b84846133ef565b6001905092915050565b600047905090565b6000600e54905090565b6000601254905090565b6000600354905090565b6110426133e7565b73ffffffffffffffffffffffffffffffffffffffff1660008054906101000a900473ffffffffffffffffffffffffffffffffffffffff1673ffffffffffffffffffffffffffffffffffffffff1614611102576040517f08c379a00000000000000000000000000000000000000000000000000000000081526004018080602001828103825260208152602001807f4f776e61626c653a2063616c6c6572206973206e6f7420746865206f776e657281525060200191505060405180910390fd5b605a81111561111057605a90505b80600f8190555050565b600080600061112986866135e6565b9150915061113a8686866000613606565b6111fb866111466133e7565b6111f6876040518060600160405280602881526020016153ed60289139600860008d73ffffffffffffffffffffffffffffffffffffffff1673ffffffffffffffffffffffffffffffffffffffff16815260200190815260200160002060006111ac6133e7565b73ffffffffffffffffffffffffffffffffffffffff1673ffffffffffffffffffffffffffffffffffffffff168152602001908152602001600020546139fe9092919063ffffffff16565b6133ef565b6112058683613abe565b61120f8582613abe565b6001925050509392505050565b6112246133e7565b73ffffffffffffffffffffffffffffffffffffffff1660008054906101000a900473ffffffffffffffffffffffffffffffffffffffff1673ffffffffffffffffffffffffffffffffffffffff16146112e4576040517f08c379a00000000000000000000000000000000000000000000000000000000081526004018080602001828103825260208152602001807f4f776e61626c653a2063616c6c6572206973206e6f7420746865206f776e657281525060200191505060405180910390fd5b80601360026101000a81548160ff0219169083151502179055507f3794234fa370c9f3b948dda3e3040530785b2ef1eb27dda3ffde478f4e2643c08160405180821515815260200191505060405180910390a150565b6000600454821115611397576040517f08c379a000000000000000000000000000000000000000000000000000000000815260040180806020018281038252602a8152602001806152b6602a913960400191505060405180910390fd5b60006113a1613b77565b90506113b6818461339d90919063ffffffff16565b915050919050565b6000600a905090565b6113cf6133e7565b73ffffffffffffffffffffffffffffffffffffffff1660008054906101000a900473ffffffffffffffffffffffffffffffffffffffff1673ffffffffffffffffffffffffffffffffffffffff161461148f576040517f08c379a00000000000000000000000000000000000000000000000000000000081526004018080602001828103825260208152602001807f4f776e61626c653a2063616c6c6572206973206e6f7420746865206f776e657281525060200191505060405180910390fd5b611497612339565b73ffffffffffffffffffffffffffffffffffffffff168173ffffffffffffffffffffffffffffffffffffffff16141561151b576040517f08c379a00000000000000000000000000000000000000000000000000000000081526004018080602001828103825260258152602001806153286025913960400191505060405180910390fd5b3073ffffffffffffffffffffffffffffffffffffffff168173ffffffffffffffffffffffffffffffffffffffff1614156115a0576040517f08c379a000000000000000000000000000000000000000000000000000000000815260040180806020018281038252603281526020018061551c6032913960400191505060405180910390fd5b73314159265358979323846264338327950288419773ffffffffffffffffffffffffffffffffffffffff168173ffffffffffffffffffffffffffffffffffffffff161415611639576040517f08c379a00000000000000000000000000000000000000000000000000000000081526004018080602001828103825260308152602001806152866030913960400191505060405180910390fd5b600a60008273ffffffffffffffffffffffffffffffffffffffff1673ffffffffffffffffffffffffffffffffffffffff16815260200190815260200160002060009054906101000a900460ff166116f8576040517f08c379a00000000000000000000000000000000000000000000000000000000081526004018080602001828103825260178152602001807f4163636f756e74206973206e6f74206578636c7564656400000000000000000081525060200191505060405180910390fd5b60005b600b805490508110156118f7578173ffffffffffffffffffffffffffffffffffffffff16600b828154811061172c57fe5b9060005260206000200160009054906101000a900473ffffffffffffffffffffffffffffffffffffffff1673ffffffffffffffffffffffffffffffffffffffff1614156118ea57600b6001600b80549050038154811061178857fe5b9060005260206000200160009054906101000a900473ffffffffffffffffffffffffffffffffffffffff16600b82815481106117c057fe5b9060005260206000200160006101000a81548173ffffffffffffffffffffffffffffffffffffffff021916908373ffffffffffffffffffffffffffffffffffffffff1602179055506000600760008473ffffffffffffffffffffffffffffffffffffffff1673ffffffffffffffffffffffffffffffffffffffff168152602001908152602001600020819055506000600a60008473ffffffffffffffffffffffffffffffffffffffff1673ffffffffffffffffffffffffffffffffffffffff16815260200190815260200160002060006101000a81548160ff021916908315150217905550600b8054806118b057fe5b6001900381819060005260206000200160006101000a81549073ffffffffffffffffffffffffffffffffffffffff021916905590556118f7565b80806001019150506116fb565b5050565b60006119a46119086133e7565b8461199f85600860006119196133e7565b73ffffffffffffffffffffffffffffffffffffffff1673ffffffffffffffffffffffffffffffffffffffff16815260200190815260200160002060008973ffffffffffffffffffffffffffffffffffffffff1673ffffffffffffffffffffffffffffffffffffffff16815260200190815260200160002054613ba290919063ffffffff16565b6133ef565b6001905092915050565b6000601654905090565b6119c06133e7565b73ffffffffffffffffffffffffffffffffffffffff1660008054906101000a900473ffffffffffffffffffffffffffffffffffffffff1673ffffffffffffffffffffffffffffffffffffffff1614611a80576040517f08c379a00000000000000000000000000000000000000000000000000000000081526004018080602001828103825260208152602001807f4f776e61626c653a2063616c6c6572206973206e6f7420746865206f776e657281525060200191505060405180910390fd5b6001600960008373ffffffffffffffffffffffffffffffffffffffff1673ffffffffffffffffffffffffffffffffffffffff16815260200190815260200160002060006101000a81548160ff02191690831515021790555050565b601760019054906101000a900460ff1681565b611af66133e7565b73ffffffffffffffffffffffffffffffffffffffff1660008054906101000a900473ffffffffffffffffffffffffffffffffffffffff1673ffffffffffffffffffffffffffffffffffffffff1614611bb6576040517f08c379a00000000000000000000000000000000000000000000000000000000081526004018080602001828103825260208152602001807f4f776e61626c653a2063616c6c6572206973206e6f7420746865206f776e657281525060200191505060405180910390fd5b600a60008273ffffffffffffffffffffffffffffffffffffffff1673ffffffffffffffffffffffffffffffffffffffff16815260200190815260200160002060009054906101000a900460ff1615611c76576040517f08c379a000000000000000000000000000000000000000000000000000000000815260040180806020018281038252601b8152602001807f4163636f756e7420697320616c7265616479206578636c75646564000000000081525060200191505060405180910390fd5b6000600660008373ffffffffffffffffffffffffffffffffffffffff1673ffffffffffffffffffffffffffffffffffffffff168152602001908152602001600020541115611d4a57611d06600660008373ffffffffffffffffffffffffffffffffffffffff1673ffffffffffffffffffffffffffffffffffffffff1681526020019081526020016000205461133a565b600760008373ffffffffffffffffffffffffffffffffffffffff1673ffffffffffffffffffffffffffffffffffffffff168152602001908152602001600020819055505b6001600a60008373ffffffffffffffffffffffffffffffffffffffff1673ffffffffffffffffffffffffffffffffffffffff16815260200190815260200160002060006101000a81548160ff021916908315150217905550600b819080600181540180825580915050600190039060005260206000200160009091909190916101000a81548173ffffffffffffffffffffffffffffffffffffffff021916908373ffffffffffffffffffffffffffffffffffffffff16021790555050565b7f000000000000000000000000000000000000000000000000000000000000000081565b6000600960008373ffffffffffffffffffffffffffffffffffffffff1673ffffffffffffffffffffffffffffffffffffffff16815260200190815260200160002060009054906101000a900460ff169050919050565b611e8a6133e7565b73ffffffffffffffffffffffffffffffffffffffff1660008054906101000a900473ffffffffffffffffffffffffffffffffffffffff1673ffffffffffffffffffffffffffffffffffffffff1614611f4a576040517f08c379a00000000000000000000000000000000000000000000000000000000081526004018080602001828103825260208152602001807f4f776e61626c653a2063616c6c6572206973206e6f7420746865206f776e657281525060200191505060405180910390fd5b611f5381613c2a565b50505050565b6000600a60008373ffffffffffffffffffffffffffffffffffffffff1673ffffffffffffffffffffffffffffffffffffffff16815260200190815260200160002060009054906101000a900460ff1615611ff457600760008373ffffffffffffffffffffffffffffffffffffffff1673ffffffffffffffffffffffffffffffffffffffff16815260200190815260200160002054905061203f565b61203c600660008473ffffffffffffffffffffffffffffffffffffffff1673ffffffffffffffffffffffffffffffffffffffff1681526020019081526020016000205461133a565b90505b919050565b61204c6133e7565b73ffffffffffffffffffffffffffffffffffffffff1660008054906101000a900473ffffffffffffffffffffffffffffffffffffffff1673ffffffffffffffffffffffffffffffffffffffff161461210c576040517f08c379a00000000000000000000000000000000000000000000000000000000081526004018080602001828103825260208152602001807f4f776e61626c653a2063616c6c6572206973206e6f7420746865206f776e657281525060200191505060405180910390fd5b600073ffffffffffffffffffffffffffffffffffffffff1660008054906101000a900473ffffffffffffffffffffffffffffffffffffffff1673ffffffffffffffffffffffffffffffffffffffff167f8be0079c531659141344cd1fd0a4f28419497f9722a3daafe3b4186f6b6457e060405160405180910390a360008060006101000a81548173ffffffffffffffffffffffffffffffffffffffff021916908373ffffffffffffffffffffffffffffffffffffffff160217905550565b6121d26133e7565b73ffffffffffffffffffffffffffffffffffffffff1660008054906101000a900473ffffffffffffffffffffffffffffffffffffffff1673ffffffffffffffffffffffffffffffffffffffff1614612292576040517f08c379a00000000000000000000000000000000000000000000000000000000081526004018080602001828103825260208152602001807f4f776e61626c653a2063616c6c6572206973206e6f7420746865206f776e657281525060200191505060405180910390fd5b80601360006101000a81548160ff02191690831515021790555050565b60055481565b600f5481565b6000600a60008373ffffffffffffffffffffffffffffffffffffffff1673ffffffffffffffffffffffffffffffffffffffff16815260200190815260200160002060009054906101000a900460ff169050919050565b60007f0000000000000000000000000000000000000000000000000000000000000000905090565b60008060009054906101000a900473ffffffffffffffffffffffffffffffffffffffff16905090565b6000601854905090565b60606040518060400160405280600281526020017f5443000000000000000000000000000000000000000000000000000000000000815250905090565b600061246c6123b66133e7565b84612467856040518060600160405280602581526020016154f760259139600860006123e06133e7565b73ffffffffffffffffffffffffffffffffffffffff1673ffffffffffffffffffffffffffffffffffffffff16815260200190815260200160002060008a73ffffffffffffffffffffffffffffffffffffffff1673ffffffffffffffffffffffffffffffffffffffff168152602001908152602001600020546139fe9092919063ffffffff16565b6133ef565b6001905092915050565b3373ffffffffffffffffffffffffffffffffffffffff16600160009054906101000a900473ffffffffffffffffffffffffffffffffffffffff1673ffffffffffffffffffffffffffffffffffffffff161461251c576040517f08c379a00000000000000000000000000000000000000000000000000000000081526004018080602001828103825260238152602001806154d46023913960400191505060405180910390fd5b6002544211612593576040517f08c379a000000000000000000000000000000000000000000000000000000000815260040180806020018281038252601f8152602001807f436f6e7472616374206973206c6f636b656420756e74696c203720646179730081525060200191505060405180910390fd5b600160009054906101000a900473ffffffffffffffffffffffffffffffffffffffff1673ffffffffffffffffffffffffffffffffffffffff1660008054906101000a900473ffffffffffffffffffffffffffffffffffffffff1673ffffffffffffffffffffffffffffffffffffffff167f8be0079c531659141344cd1fd0a4f28419497f9722a3daafe3b4186f6b6457e060405160405180910390a3600160009054906101000a900473ffffffffffffffffffffffffffffffffffffffff166000806101000a81548173ffffffffffffffffffffffffffffffffffffffff021916908373ffffffffffffffffffffffffffffffffffffffff160217905550565b60008060006126a96126a36133e7565b866135e6565b915091506126c16126b86133e7565b86866001613606565b6126d26126cc6133e7565b83613abe565b6126dc8582613abe565b60019250505092915050565b6000600254905090565b6000683635c9adc5dea00000905060004711612776576040517f08c379a000000000000000000000000000000000000000000000000000000000815260040180806020018281038252600c8152602001807f42616c616e63652069732030000000000000000000000000000000000000000081525060200191505060405180910390fd5b60004790506127a6307f0000000000000000000000000000000000000000000000000000000000000000846133ef565b7f000000000000000000000000000000000000000000000000000000000000000073ffffffffffffffffffffffffffffffffffffffff1663f305d71982308560008030426040518863ffffffff1660e01b8152600401808773ffffffffffffffffffffffffffffffffffffffff1681526020018681526020018581526020018481526020018373ffffffffffffffffffffffffffffffffffffffff16815260200182815260200196505050505050506060604051808303818588803b15801561286e57600080fd5b505af1158015612882573d6000803e3d6000fd5b50505050506040513d606081101561289957600080fd5b810190808051906020019092919080519060200190929190805190602001909291905050505050505050565b601360029054906101000a900460ff1681565b6128e06133e7565b73ffffffffffffffffffffffffffffffffffffffff1660008054906101000a900473ffffffffffffffffffffffffffffffffffffffff1673ffffffffffffffffffffffffffffffffffffffff16146129a0576040517f08c379a00000000000000000000000000000000000000000000000000000000081526004018080602001828103825260208152602001807f4f776e61626c653a2063616c6c6572206973206e6f7420746865206f776e657281525060200191505060405180910390fd5b80601760016101000a81548160ff0219169083151502179055507f53726dfcaf90650aa7eb35524f4d3220f07413c8d6cb404cc8c18bf5591bc1598160405180821515815260200191505060405180910390a150565b6000601154905090565b612a086133e7565b73ffffffffffffffffffffffffffffffffffffffff1660008054906101000a900473ffffffffffffffffffffffffffffffffffffffff1673ffffffffffffffffffffffffffffffffffffffff1614612ac8576040517f08c379a00000000000000000000000000000000000000000000000000000000081526004018080602001828103825260208152602001807f4f776e61626c653a2063616c6c6572206973206e6f7420746865206f776e657281525060200191505060405180910390fd5b612af06064612ae283600354613f4590919063ffffffff16565b61339d90919063ffffffff16565b60058190555050565b612b016133e7565b73ffffffffffffffffffffffffffffffffffffffff1660008054906101000a900473ffffffffffffffffffffffffffffffffffffffff1673ffffffffffffffffffffffffffffffffffffffff1614612bc1576040517f08c379a00000000000000000000000000000000000000000000000000000000081526004018080602001828103825260208152602001807f4f776e61626c653a2063616c6c6572206973206e6f7420746865206f776e657281525060200191505060405180910390fd5b60008054906101000a900473ffffffffffffffffffffffffffffffffffffffff16600160006101000a81548173ffffffffffffffffffffffffffffffffffffffff021916908373ffffffffffffffffffffffffffffffffffffffff16021790555060008060006101000a81548173ffffffffffffffffffffffffffffffffffffffff021916908373ffffffffffffffffffffffffffffffffffffffff160217905550804201600281905550600073ffffffffffffffffffffffffffffffffffffffff1660008054906101000a900473ffffffffffffffffffffffffffffffffffffffff1673ffffffffffffffffffffffffffffffffffffffff167f8be0079c531659141344cd1fd0a4f28419497f9722a3daafe3b4186f6b6457e060405160405180910390a350565b6000600860008473ffffffffffffffffffffffffffffffffffffffff1673ffffffffffffffffffffffffffffffffffffffff16815260200190815260200160002060008373ffffffffffffffffffffffffffffffffffffffff1673ffffffffffffffffffffffffffffffffffffffff16815260200190815260200160002054905092915050565b7f000000000000000000000000000000000000000000000000000000000000000081565b612d9d6133e7565b73ffffffffffffffffffffffffffffffffffffffff1660008054906101000a900473ffffffffffffffffffffffffffffffffffffffff1673ffffffffffffffffffffffffffffffffffffffff1614612e5d576040517f08c379a00000000000000000000000000000000000000000000000000000000081526004018080602001828103825260208152602001807f4f776e61626c653a2063616c6c6572206973206e6f7420746865206f776e657281525060200191505060405180910390fd5b612e65612339565b73ffffffffffffffffffffffffffffffffffffffff168173ffffffffffffffffffffffffffffffffffffffff161415612ee9576040517f08c379a00000000000000000000000000000000000000000000000000000000081526004018080602001828103825260218152602001806154b36021913960400191505060405180910390fd5b3073ffffffffffffffffffffffffffffffffffffffff168173ffffffffffffffffffffffffffffffffffffffff161415612f6e576040517f08c379a000000000000000000000000000000000000000000000000000000000815260040180806020018281038252602e81526020018061539e602e913960400191505060405180910390fd5b73314159265358979323846264338327950288419773ffffffffffffffffffffffffffffffffffffffff168173ffffffffffffffffffffffffffffffffffffffff161415613007576040517f08c379a000000000000000000000000000000000000000000000000000000000815260040180806020018281038252602c815260200180615487602c913960400191505060405180910390fd5b6000600960008373ffffffffffffffffffffffffffffffffffffffff1673ffffffffffffffffffffffffffffffffffffffff16815260200190815260200160002060006101000a81548160ff02191690831515021790555050565b61306a6133e7565b73ffffffffffffffffffffffffffffffffffffffff1660008054906101000a900473ffffffffffffffffffffffffffffffffffffffff1673ffffffffffffffffffffffffffffffffffffffff161461312a576040517f08c379a00000000000000000000000000000000000000000000000000000000081526004018080602001828103825260208152602001807f4f776e61626c653a2063616c6c6572206973206e6f7420746865206f776e657281525060200191505060405180910390fd5b600073ffffffffffffffffffffffffffffffffffffffff168173ffffffffffffffffffffffffffffffffffffffff1614156131b0576040517f08c379a00000000000000000000000000000000000000000000000000000000081526004018080602001828103825260268152602001806152e06026913960400191505060405180910390fd5b8073ffffffffffffffffffffffffffffffffffffffff1660008054906101000a900473ffffffffffffffffffffffffffffffffffffffff1673ffffffffffffffffffffffffffffffffffffffff167f8be0079c531659141344cd1fd0a4f28419497f9722a3daafe3b4186f6b6457e060405160405180910390a3806000806101000a81548173ffffffffffffffffffffffffffffffffffffffff021916908373ffffffffffffffffffffffffffffffffffffffff16021790555050565b600c5481565b61327b6133e7565b73ffffffffffffffffffffffffffffffffffffffff1660008054906101000a900473ffffffffffffffffffffffffffffffffffffffff1673ffffffffffffffffffffffffffffffffffffffff161461333b576040517f08c379a00000000000000000000000000000000000000000000000000000000081526004018080602001828103825260208152602001807f4f776e61626c653a2063616c6c6572206973206e6f7420746865206f776e657281525060200191505060405180910390fd5b602881111561334957602890505b80600c8190555050565b600061339583836040518060400160405280601e81526020017f536166654d6174683a207375627472616374696f6e206f766572666c6f7700008152506139fe565b905092915050565b60006133df83836040518060400160405280601a81526020017f536166654d6174683a206469766973696f6e206279207a65726f000000000000815250613fcb565b905092915050565b600033905090565b600073ffffffffffffffffffffffffffffffffffffffff168373ffffffffffffffffffffffffffffffffffffffff161415613475576040517f08c379a00000000000000000000000000000000000000000000000000000000081526004018080602001828103825260248152602001806154636024913960400191505060405180910390fd5b600073ffffffffffffffffffffffffffffffffffffffff168273ffffffffffffffffffffffffffffffffffffffff1614156134fb576040517f08c379a00000000000000000000000000000000000000000000000000000000081526004018080602001828103825260228152602001806153066022913960400191505060405180910390fd5b80600860008573ffffffffffffffffffffffffffffffffffffffff1673ffffffffffffffffffffffffffffffffffffffff16815260200190815260200160002060008473ffffffffffffffffffffffffffffffffffffffff1673ffffffffffffffffffffffffffffffffffffffff168152602001908152602001600020819055508173ffffffffffffffffffffffffffffffffffffffff168373ffffffffffffffffffffffffffffffffffffffff167f8c5be1e5ebec7d5bd14f71427d1e84f3dd0314c0f7b2291e5b200ac8c7c3b925836040518082815260200191505060405180910390a3505050565b6000806135f284611f59565b6135fb84611f59565b915091509250929050565b600073ffffffffffffffffffffffffffffffffffffffff168473ffffffffffffffffffffffffffffffffffffffff16141561368c576040517f08c379a000000000000000000000000000000000000000000000000000000000815260040180806020018281038252602581526020018061543e6025913960400191505060405180910390fd5b600073ffffffffffffffffffffffffffffffffffffffff168373ffffffffffffffffffffffffffffffffffffffff161415613712576040517f08c379a00000000000000000000000000000000000000000000000000000000081526004018080602001828103825260238152602001806152636023913960400191505060405180910390fd5b6000821161376b576040517f08c379a00000000000000000000000000000000000000000000000000000000081526004018080602001828103825260298152602001806154156029913960400191505060405180910390fd5b613773612339565b73ffffffffffffffffffffffffffffffffffffffff168473ffffffffffffffffffffffffffffffffffffffff16141580156137e157506137b1612339565b73ffffffffffffffffffffffffffffffffffffffff168373ffffffffffffffffffffffffffffffffffffffff1614155b80156137fa5750601360009054906101000a900460ff16155b1561385b5760055482111561385a576040517f08c379a000000000000000000000000000000000000000000000000000000000815260040180806020018281038252602881526020018061534d6028913960400191505060405180910390fd5b5b6000601854905060055481106138715760055490505b655af3107a400081101580156138945750601760009054906101000a900460ff16155b80156138ac5750601760019054906101000a900460ff165b156138c1576138c0655af3107a4000614091565b5b6000479050662386f26fc1000081101580156138ea5750601360019054906101000a900460ff16155b80156139025750601360029054906101000a900460ff165b1561392057600066038d7ea4c680008203905061391e81614173565b505b600060019050600960008873ffffffffffffffffffffffffffffffffffffffff1673ffffffffffffffffffffffffffffffffffffffff16815260200190815260200160002060009054906101000a900460ff16806139c75750600960008773ffffffffffffffffffffffffffffffffffffffff1673ffffffffffffffffffffffffffffffffffffffff16815260200190815260200160002060009054906101000a900460ff165b806139de5750601360009054906101000a900460ff165b156139e857600090505b6139f58787878488614432565b50505050505050565b6000838311158290613aab576040517f08c379a00000000000000000000000000000000000000000000000000000000081526004018080602001828103825283818151815260200191508051906020019080838360005b83811015613a70578082015181840152602081019050613a55565b50505050905090810190601f168015613a9d5780820380516001836020036101000a031916815260200191505b509250505060405180910390fd5b5060008385039050809150509392505050565b7f000000000000000000000000000000000000000000000000000000000000000073ffffffffffffffffffffffffffffffffffffffff168273ffffffffffffffffffffffffffffffffffffffff161415613b1757613b73565b600a8111158015613b305750600a613b2e83611f59565b115b15613b4657600160155401601581905550613b72565b600a81118015613b5f5750600a613b5c83611f59565b11155b15613b71576001601554036015819055505b5b5b5050565b6000806000613b84614790565b91509150613b9b818361339d90919063ffffffff16565b9250505090565b600080828401905083811015613c20576040517f08c379a000000000000000000000000000000000000000000000000000000000815260040180806020018281038252601b8152602001807f536166654d6174683a206164646974696f6e206f766572666c6f77000000000081525060200191505060405180910390fd5b8091505092915050565b600080826014541015613c88576040517f08c379a00000000000000000000000000000000000000000000000000000000081526004018080602001828103825260298152602001806153756029913960400191505060405180910390fd5b6000613c92613b77565b90506000613ca98286613f4590919063ffffffff16565b90506000613cd6600a613cc86064601554613f4590919063ffffffff16565b61339d90919063ffffffff16565b90506000613d006064613cf28585613f4590919063ffffffff16565b61339d90919063ffffffff16565b9050600081840390506000613d1e868361339d90919063ffffffff16565b90506000613d35878561339d90919063ffffffff16565b9050613d4c82601854613ba290919063ffffffff16565b601881905550613d678a60145461335390919063ffffffff16565b50613dba81600760003073ffffffffffffffffffffffffffffffffffffffff1673ffffffffffffffffffffffffffffffffffffffff1681526020019081526020016000205461335390919063ffffffff16565b600760003073ffffffffffffffffffffffffffffffffffffffff1673ffffffffffffffffffffffffffffffffffffffff16815260200190815260200160002081905550613e63816007600073314159265358979323846264338327950288419773ffffffffffffffffffffffffffffffffffffffff1673ffffffffffffffffffffffffffffffffffffffff16815260200190815260200160002054613ba290919063ffffffff16565b6007600073314159265358979323846264338327950288419773ffffffffffffffffffffffffffffffffffffffff1673ffffffffffffffffffffffffffffffffffffffff1681526020019081526020016000208190555073314159265358979323846264338327950288419773ffffffffffffffffffffffffffffffffffffffff163073ffffffffffffffffffffffffffffffffffffffff167fddf252ad1be2c89b69c2b068fc378daa952ba7f163c4a11628f55a4df523b3ef8c6040518082815260200191505060405180910390a380849850985050505050505050915091565b600080831415613f585760009050613fc5565b6000828402905082848281613f6957fe5b0414613fc0576040517f08c379a00000000000000000000000000000000000000000000000000000000081526004018080602001828103825260218152602001806153cc6021913960400191505060405180910390fd5b809150505b92915050565b60008083118290614077576040517f08c379a00000000000000000000000000000000000000000000000000000000081526004018080602001828103825283818151815260200191508051906020019080838360005b8381101561403c578082015181840152602081019050614021565b50505050905090810190601f1680156140695780820380516001836020036101000a031916815260200191505b509250505060405180910390fd5b50600083858161408357fe5b049050809150509392505050565b6001601760006101000a81548160ff02191690831515021790555060006140c260028361339d90919063ffffffff16565b905060006140d9828461335390919063ffffffff16565b905060004790506140e983614a21565b60006140fe824761335390919063ffffffff16565b905061410a8382614ccf565b7f17bbfb9a6069321b6ded73bd96327c9e6b7212a5cd51ff219cd61370acafb56184828560405180848152602001838152602001828152602001935050505060405180910390a1505050506000601760006101000a81548160ff02191690831515021790555050565b6001601360016101000a81548160ff0219169083151502179055506060600267ffffffffffffffff811180156141a857600080fd5b506040519080825280602002602001820160405280156141d75781602001602082028036833780820191505090505b50905030816001815181106141e857fe5b602002602001019073ffffffffffffffffffffffffffffffffffffffff16908173ffffffffffffffffffffffffffffffffffffffff16815250507f000000000000000000000000000000000000000000000000000000000000000073ffffffffffffffffffffffffffffffffffffffff1663fb3bdb418360008430426040518663ffffffff1660e01b815260040180858152602001806020018473ffffffffffffffffffffffffffffffffffffffff168152602001838152602001828103825285818151815260200191508051906020019060200280838360005b838110156142de5780820151818401526020810190506142c3565b50505050905001955050505050506000604051808303818588803b15801561430557600080fd5b505af1158015614319573d6000803e3d6000fd5b50505050506040513d6000823e3d601f19601f82011682018060405250602081101561434457600080fd5b810190808051604051939291908464010000000082111561436457600080fd5b8382019150602082018581111561437a57600080fd5b825186602082028301116401000000008211171561439757600080fd5b8083526020830192505050908051906020019060200280838360005b838110156143ce5780820151818401526020810190506143b3565b50505050905001604052505050507f3d7cba60e9f9ef4f9e9be01596d3f713882afdf28f08d1ea8f0c2c2b6a1fb41a826040518082815260200191505060405180910390a1506000601360016101000a81548160ff02191690831515021790555050565b816144405761443f614e19565b5b6000806000806000806144538988614e5c565b9550955095509550955095506144b186600660008e73ffffffffffffffffffffffffffffffffffffffff1673ffffffffffffffffffffffffffffffffffffffff1681526020019081526020016000205461335390919063ffffffff16565b600660008d73ffffffffffffffffffffffffffffffffffffffff1673ffffffffffffffffffffffffffffffffffffffff1681526020019081526020016000208190555061454685600660008d73ffffffffffffffffffffffffffffffffffffffff1673ffffffffffffffffffffffffffffffffffffffff16815260200190815260200160002054613ba290919063ffffffff16565b600660008c73ffffffffffffffffffffffffffffffffffffffff1673ffffffffffffffffffffffffffffffffffffffff16815260200190815260200160002081905550600a60008c73ffffffffffffffffffffffffffffffffffffffff1673ffffffffffffffffffffffffffffffffffffffff16815260200190815260200160002060009054906101000a900460ff16156146715761462d89600760008e73ffffffffffffffffffffffffffffffffffffffff1673ffffffffffffffffffffffffffffffffffffffff1681526020019081526020016000205461335390919063ffffffff16565b600760008d73ffffffffffffffffffffffffffffffffffffffff1673ffffffffffffffffffffffffffffffffffffffff168152602001908152602001600020819055505b600a60008b73ffffffffffffffffffffffffffffffffffffffff1673ffffffffffffffffffffffffffffffffffffffff16815260200190815260200160002060009054906101000a900460ff16156147595761471583600760008d73ffffffffffffffffffffffffffffffffffffffff1673ffffffffffffffffffffffffffffffffffffffff16815260200190815260200160002054613ba290919063ffffffff16565b600760008c73ffffffffffffffffffffffffffffffffffffffff1673ffffffffffffffffffffffffffffffffffffffff168152602001908152602001600020819055505b61476281614fa5565b61476c8483615165565b6147758261519f565b87614783576147826151ea565b5b5050505050505050505050565b600080600060045490506000600354905060005b600b805490508110156149e4578260066000600b84815481106147c357fe5b9060005260206000200160009054906101000a900473ffffffffffffffffffffffffffffffffffffffff1673ffffffffffffffffffffffffffffffffffffffff1673ffffffffffffffffffffffffffffffffffffffff1681526020019081526020016000205411806148aa57508160076000600b848154811061484257fe5b9060005260206000200160009054906101000a900473ffffffffffffffffffffffffffffffffffffffff1673ffffffffffffffffffffffffffffffffffffffff1673ffffffffffffffffffffffffffffffffffffffff16815260200190815260200160002054115b156148c15760045460035494509450505050614a1d565b61494a60066000600b84815481106148d557fe5b9060005260206000200160009054906101000a900473ffffffffffffffffffffffffffffffffffffffff1673ffffffffffffffffffffffffffffffffffffffff1673ffffffffffffffffffffffffffffffffffffffff168152602001908152602001600020548461335390919063ffffffff16565b92506149d560076000600b848154811061496057fe5b9060005260206000200160009054906101000a900473ffffffffffffffffffffffffffffffffffffffff1673ffffffffffffffffffffffffffffffffffffffff1673ffffffffffffffffffffffffffffffffffffffff168152602001908152602001600020548361335390919063ffffffff16565b915080806001019150506147a4565b506149fc60035460045461339d90919063ffffffff16565b821015614a1457600454600354935093505050614a1d565b81819350935050505b9091565b6060600267ffffffffffffffff81118015614a3b57600080fd5b50604051908082528060200260200182016040528015614a6a5781602001602082028036833780820191505090505b5090503081600081518110614a7b57fe5b602002602001019073ffffffffffffffffffffffffffffffffffffffff16908173ffffffffffffffffffffffffffffffffffffffff16815250507f000000000000000000000000000000000000000000000000000000000000000073ffffffffffffffffffffffffffffffffffffffff1663ad5c46486040518163ffffffff1660e01b815260040160206040518083038186803b158015614b1b57600080fd5b505afa158015614b2f573d6000803e3d6000fd5b505050506040513d6020811015614b4557600080fd5b810190808051906020019092919050505081600181518110614b6357fe5b602002602001019073ffffffffffffffffffffffffffffffffffffffff16908173ffffffffffffffffffffffffffffffffffffffff1681525050614bc8307f0000000000000000000000000000000000000000000000000000000000000000846133ef565b7f000000000000000000000000000000000000000000000000000000000000000073ffffffffffffffffffffffffffffffffffffffff1663791ac9478360008430426040518663ffffffff1660e01b815260040180868152602001858152602001806020018473ffffffffffffffffffffffffffffffffffffffff168152602001838152602001828103825285818151815260200191508051906020019060200280838360005b83811015614c8a578082015181840152602081019050614c6f565b505050509050019650505050505050600060405180830381600087803b158015614cb357600080fd5b505af1158015614cc7573d6000803e3d6000fd5b505050505050565b614cfa307f0000000000000000000000000000000000000000000000000000000000000000846133ef565b7f000000000000000000000000000000000000000000000000000000000000000073ffffffffffffffffffffffffffffffffffffffff1663f305d71982308560008030426040518863ffffffff1660e01b8152600401808773ffffffffffffffffffffffffffffffffffffffff1681526020018681526020018581526020018481526020018373ffffffffffffffffffffffffffffffffffffffff16815260200182815260200196505050505050506060604051808303818588803b158015614dc257600080fd5b505af1158015614dd6573d6000803e3d6000fd5b50505050506040513d6060811015614ded57600080fd5b810190808051906020019092919080519060200190929190805190602001909291905050505050505050565b6000600c54148015614e2d57506000600f54145b15614e3757614e5a565b600c54600d81905550600f546010819055506000600c819055506000600f819055505b565b60008060008060008060008715614e9857614e76896151fe565b9050614e8d81600e54613ba290919063ffffffff16565b600e81905550614ebf565b614ea189615230565b9050614eb881601154613ba290919063ffffffff16565b6011819055505b6000614ed4828b61335390919063ffffffff16565b90506000614eec60028461339d90919063ffffffff16565b90506000614f0460028561339d90919063ffffffff16565b90506000614f10613b77565b90506000614f27828f613f4590919063ffffffff16565b90506000614f3e8385613f4590919063ffffffff16565b90506000614f558487613f4590919063ffffffff16565b90506000614f7e82614f70858761335390919063ffffffff16565b61335390919063ffffffff16565b90508381848a898b9e509e509e509e509e509e505050505050505050509295509295509295565b6000614faf613b77565b90506000614fc68284613f4590919063ffffffff16565b905061501a81600660003073ffffffffffffffffffffffffffffffffffffffff1673ffffffffffffffffffffffffffffffffffffffff16815260200190815260200160002054613ba290919063ffffffff16565b600660003073ffffffffffffffffffffffffffffffffffffffff1673ffffffffffffffffffffffffffffffffffffffff16815260200190815260200160002081905550600a60003073ffffffffffffffffffffffffffffffffffffffff1673ffffffffffffffffffffffffffffffffffffffff16815260200190815260200160002060009054906101000a900460ff16156151455761510183600760003073ffffffffffffffffffffffffffffffffffffffff1673ffffffffffffffffffffffffffffffffffffffff16815260200190815260200160002054613ba290919063ffffffff16565b600760003073ffffffffffffffffffffffffffffffffffffffff1673ffffffffffffffffffffffffffffffffffffffff168152602001908152602001600020819055505b61515a83601854613ba290919063ffffffff16565b601881905550505050565b61517a8260045461335390919063ffffffff16565b60048190555061519581601254613ba290919063ffffffff16565b6012819055505050565b6000806151ab83613c2a565b915091506151c48160045461335390919063ffffffff16565b6004819055506151df82601654613ba290919063ffffffff16565b601681905550505050565b600d54600c81905550601054600f81905550565b60006152296103e861521b600c5485613f4590919063ffffffff16565b61339d90919063ffffffff16565b9050919050565b600061525b6103e861524d600f5485613f4590919063ffffffff16565b61339d90919063ffffffff16565b905091905056fe45524332303a207472616e7366657220746f20746865207a65726f2061646472657373546865206275726e20616464726573732063616e6e6f7420626520696e636c7564656420696e20726577617264732021416d6f756e74206d757374206265206c657373207468616e20746f74616c207265666c656374696f6e734f776e61626c653a206e6577206f776e657220697320746865207a65726f206164647265737345524332303a20617070726f766520746f20746865207a65726f20616464726573734f776e65722063616e6e6f7420626520696e636c7564656420696e207265776172647320215472616e7366657220616d6f756e74206578636565647320746865206d61785478416d6f756e742e42617365526669546f6b656e3a206275726e20616d6f756e7420657863656564732062616c616e636554686520746f6b656e20636f6e74726163742063616e6e6f7420626520696e636c7564656420696e206665652021536166654d6174683a206d756c7469706c69636174696f6e206f766572666c6f7745524332303a207472616e7366657220616d6f756e74206578636565647320616c6c6f77616e63655472616e7366657220616d6f756e74206d7573742062652067726561746572207468616e207a65726f45524332303a207472616e736665722066726f6d20746865207a65726f206164647265737345524332303a20617070726f76652066726f6d20746865207a65726f2061646472657373546865206275726e20616464726573732063616e6e6f7420626520696e636c7564656420696e2066656520214f776e65722063616e6e6f7420626520696e636c7564656420696e206665652021596f7520646f6e27742068617665207065726d697373696f6e20746f20756e6c6f636b45524332303a2064656372656173656420616c6c6f77616e63652062656c6f77207a65726f54686520746f6b656e20636f6e74726163742063616e6e6f7420626520696e636c7564656420696e20726577617264732021a2646970667358221220303d7ce829909c71232f040dd42a001e8214414a0530f6fd92d2012a961377ef64736f6c634300060c0033416d6f756e74206d757374206265206c657373207468616e20746f74616c207265666c656374696f6e73",
  "immutableReferences": {
    "1304": [
      {
        "length": 32,
        "start": 10113
      },
      {
        "length": 32,
        "start": 10152
      },
      {
        "length": 32,
        "start": 11635
      },
      {
        "length": 32,
        "start": 16932
      },
      {
        "length": 32,
        "start": 19127
      },
      {
        "length": 32,
        "start": 19363
      },
      {
        "length": 32,
        "start": 19402
      },
      {
        "length": 32,
        "start": 19669
      },
      {
        "length": 32,
        "start": 19708
      }
    ],
    "1306": [
      {
        "length": 32,
        "start": 7690
      },
      {
        "length": 32,
        "start": 8981
      },
      {
        "length": 32,
        "start": 15040
      }
    ]
  },
  "source": "\r\n/**\r\n\r\n   #StrongHODL features:\r\n   \r\n   _ 2% fee when buying the tokens\r\n   _ 4% fee when selling the tokens\r\n   \r\n        Half of these fee is used to add liquidity to pancakeswap liquidity pool\r\n        The other half is a reward for every hodler (RFI token)\r\n   \r\n    _ Buybacks of tokens are perform with BNB that were left apart after adding liquidity\r\n    _ Soft burns will occur from time to time, to lock a certain amount defined beforehand.\r\n    Besides, with each burn the number of tokens of every hodler will increase with a bonus\r\n    depending on the total number of hodlers.\r\n\r\n */\r\n\r\npragma solidity ^0.6.12;\r\n// SPDX-License-Identifier: Unlicensed\r\n\r\nimport \"./IERC20.sol\";\r\nimport \"./SafeMath.sol\";\r\nimport \"./context.sol\";\r\nimport \"./Address.sol\";\r\nimport \"./Ownable.sol\";\r\nimport \"./IPancake.sol\";\r\n\r\n\r\n\r\ncontract strongHODL is Context, IERC20, Ownable {\r\n    \r\n    using SafeMath for uint256;\r\n    using Address for address;\r\n\r\n    \r\n\r\n    //-----------------------------------------------------\\\\\r\n    //----------- Token variables -------------------------\\\\\r\n    //-----------------------------------------------------\\\\  \r\n    string private constant NAME = \"TestCoin2\";//\"StrongHODL\";\r\n    string private constant SYMBOL = \"TC\";//\"STRONG\";\r\n    uint8 private constant DECIMALS = 10;\r\n    \r\n    uint256 private constant MAX = ~uint256(0); // MAX = 2^(256) - 1 (highest uint256)\r\n    uint256 private _tTotal = 10**12 * 10**10; // 1 trillion tokens\r\n    uint256 private _rTotal = (MAX - (MAX % _tTotal)); // Highest number that is initially divisible by _tTotal\r\n    uint256 public _maxTxAmount = 10**8 * 10**10; // 100 million tokens max per transaction\r\n\r\n    mapping (address => uint256) private _rOwned; // reflected balances of users\r\n    mapping (address => uint256) private _tOwned; // Standard balances of users\r\n    mapping (address => mapping (address => uint256)) private _allowances;\r\n\r\n    mapping (address => bool) private _isExcludedFromFee; // Some addresses are exempted from fees\r\n    mapping (address => bool) private _isExcludedFromReward; // Some addresses are exempted from rewards (like the burn address)\r\n    address[] private _excluded;\r\n\r\n     \r\n    \r\n    //-----------------------------------------------------\\\\\r\n    //----------- Fee variables ---------------------------\\\\\r\n    //-----------------------------------------------------\\\\\r\n    // Fees are given in Per-mille (not percentages) => this allows percentages with one decimal.\r\n    // For e.g. 1.5% = 15 (1.5 percent = 15 per-mille) \r\n    uint256 public _buyerFee = 20; // 2%\r\n    uint256 private _previousBuyerFee = _buyerFee;\r\n    uint256 private constant MAXBUYERFEE = 40; // 4%\r\n    uint256 private _tBuyerFeeTotal;\r\n    \r\n    uint256 public _sellerFee = 40; // 4%\r\n    uint256 private _previousSellerFee = _sellerFee;\r\n    uint256 private constant MAXSELLERFEE = 90; // 9%\r\n    uint256 private _tSellerFeeTotal;\r\n    \r\n    uint256 private constant PERMILLEDIVISOR = 10**3; // 1000\r\n    \r\n    uint256 private _tFeeTotal;\r\n    bool private _dxSale = false;  // While selling tokens to investors on DxSale, fees won't be activated\r\n    \r\n    \r\n    //-----------------------------------------------------\\\\\r\n    //----------- Auto BuyBack variables ------------------\\\\\r\n    //-----------------------------------------------------\\\\\r\n    \r\n    bool private inBuyBack;\r\n    bool public BuyBackEnabled = true; \r\n    // The num of BNB necessary to buy tokens should be small enough to not drain liquidity\r\n    uint256 private constant numBNBSellToBuyBack = 1 * 10**16; // 0.01BNB (BNB has 18 decimals)  // TODO : Setter  faire ?\r\n    uint256 private constant minAmountToKeepForFees = 1 * 10**15; // 0.001 BNB\r\n    \r\n    event BuyBackEnabledUpdated(bool enabled);\r\n    event BNBBuyBack(uint256 bnbUsed); \r\n    \r\n    modifier lockTheBuyBack {\r\n        inBuyBack = true;\r\n        _;\r\n        inBuyBack = false;\r\n    }       \r\n    \r\n    \r\n    //-----------------------------------------------------\\\\\r\n    //----------- Auto Burn variables ---------------------\\\\\r\n    //-----------------------------------------------------\\\\   \r\n    \r\n    address private constant BURNADDRESS = 0x3141592653589793238462643383279502884197; // arbitrary set to pi value (3.14159..)\r\n    uint256 private constant MAXBURNAMOUNT = 6 * 10**11 * 10**10; // 600 billions tokens (60% of supply)\r\n    uint256 private _currentTokenBalanceForBurn = 0;\r\n    uint256 private constant MAXBONUSTOKENHODLERS = 10; // 10 for test; 10**6; // 1 million holders\r\n    uint256 private constant minNumTokenHodler = 10; // Anyone that has more than 10 tokens is considered a hodler\r\n    uint256 private nb_hodlers = 0; \r\n    uint256 private _tBurnTotal = 0;\r\n    \r\n    \r\n    \r\n    //-----------------------------------------------------\\\\\r\n    //----------- Auto Liquidity variables ----------------\\\\\r\n    //-----------------------------------------------------\\\\    \r\n    IPancakeRouter02 public immutable pancakeswapV2Router;\r\n    address public immutable pancakeswapV2Pair;\r\n    \r\n    bool private inSwapAndLiquify;\r\n    bool public swapAndLiquifyEnabled = true;    \r\n    /* Before adding liquidity to the liquidity pool, the min num of tokens accumulated with the fees needs\r\n       to be at least equal to numTokensSellToAddToLiquidity. */    \r\n    uint256 private constant numTokensSellToAddToLiquidity = 1 * 10**4 * 10**10; // 50 million tokens min\r\n    uint256 private _currentTokenBalanceForLP = 0;\r\n                    \r\n    \r\n    event SwapAndLiquifyEnabledUpdated(bool enabled);\r\n    event SwapAndLiquify(uint256 tokensSwapped, uint256 bnbReceived, uint256 tokensIntoLiqudity);\r\n    \r\n    modifier lockTheSwap {\r\n        inSwapAndLiquify = true;\r\n        _;\r\n        inSwapAndLiquify = false;\r\n    }    \r\n\r\n\r\n\r\n    \r\n    constructor ()  public  {\r\n        _rOwned[_msgSender()] = _rTotal;\r\n        \r\n        // The PancakeSwap v2 router address is hardcoded \r\n        IPancakeRouter02 _pancakeswapV2Router = IPancakeRouter02(0x10ED43C718714eb63d5aA57B78B54704E256024E);\r\n        // Main Net : 0x10ED43C718714eb63d5aA57B78B54704E256024E\r\n        // Test Net : 0x9Ac64Cc6e4415144C455BD8E4837Fea55603e5c3 \r\n\r\n         // Create a pancakeswap pair for this new token\r\n        pancakeswapV2Pair = IPancakeFactory(_pancakeswapV2Router.factory())\r\n            .createPair(address(this), _pancakeswapV2Router.WETH()); // WETH is WBNB \r\n\r\n        // set the rest of the contract variables\r\n        pancakeswapV2Router = _pancakeswapV2Router;\r\n        \r\n        // Exclude owner, this contract and the burn address from fees\r\n        excludeFromFee(owner());  \r\n        excludeFromFee(address(this));\r\n        excludeFromFee(BURNADDRESS);\r\n\r\n        // Exclude owner, this contract and the burn address from rewards\r\n        excludeFromReward(owner());\r\n        excludeFromReward(address(this));\r\n        excludeFromReward(BURNADDRESS);\r\n        \r\n        \r\n        /* Keep 60 % of the tokens in this contract => It will be burnt progressively with the autoBurn feature\r\n            The remaining 40 % will go to the owner contract (see the website for more info about the tokenomics) */\r\n        _currentTokenBalanceForBurn = MAXBURNAMOUNT;\r\n        uint256 tokenToTransfer = _tTotal.sub(MAXBURNAMOUNT);\r\n        _tOwned[owner()] = tokenToTransfer;\r\n        _tOwned[address(this)] = _currentTokenBalanceForBurn;\r\n        emit Transfer(address(0), owner(), tokenToTransfer); \r\n\r\n    }\r\n    \r\n    function addLiquiditySimu() external payable{\r\n        \r\n        uint tokenAmount = 1* 10**11 * 10**10; // 10% of total supply\r\n        \r\n        require(address(this).balance>0, \"Balance is 0\");\r\n        uint bnbAmount = address(this).balance; //1BNB\r\n        \r\n        // approve token transfer to cover all possible scenarios\r\n        _approve(address(this), address(pancakeswapV2Router), tokenAmount);\r\n\r\n        // add the liquidity\r\n        pancakeswapV2Router.addLiquidityETH{value: bnbAmount}( // ETH is BNB\r\n            address(this), \r\n            tokenAmount,\r\n            0, // slippage is unavoidable\r\n            0, // slippage is unavoidable\r\n            address(this), // LP tokens will be kept in this smart contract\r\n            block.timestamp\r\n        );   \r\n        \r\n        \r\n        \r\n         \r\n    }\r\n    \r\n    \r\n    function getPairAddress() public view returns(address) {\r\n   \t\treturn pancakeswapV2Pair;\r\n   \t}\r\n    \r\n    function balanceBNB() public view returns(uint) {\r\n    \r\n    \treturn address(this).balance;\r\n    }\r\n    \r\n    \r\n\r\n    // ----------------------------------------------------- //\r\n    // Generic public info about the token\r\n    // ----------------------------------------------------- //\r\n    \r\n    /// @return the name of the token\r\n    function name() external pure returns (string memory) {return NAME;}\r\n\r\n    /// @return the symbol of the token\r\n    function symbol() external pure returns (string memory) {return SYMBOL;}\r\n\r\n    /// @return the decimals of the token\r\n    function decimals() external pure returns (uint8) {return DECIMALS;}\r\n\r\n    /// @return the total supply of the token\r\n    function totalSupply() external view override returns (uint256) {return _tTotal;}\r\n    \r\n    \r\n    // ----------------------------------------------------- //\r\n    // Main functions that need to be overriden (from IERC20)\r\n    // ----------------------------------------------------- //\r\n    \r\n    /** \r\n        @param account : The address we will use to know the balance \r\n        @dev The balance is either obtained from tOwned or it is the reflection of the rOwned balance.\r\n        @return the balance of the account\r\n    */\r\n    function balanceOf(address account) public view override returns (uint256) {\r\n        if (_isExcludedFromReward[account]) return _tOwned[account];\r\n        return tokenFromReflection(_rOwned[account]);\r\n    }\r\n\r\n    /** \r\n        @param recipient : The address of the recipient\r\n        @param amount    : The amount of tokens that are being transfered\r\n        @notice We are updating the number of hodlers by observing the balances before and after the transfer\r\n        @return True\r\n    */\r\n    function transfer(address recipient, uint256 amount) public override returns (bool) {\r\n        \r\n        (uint256 balancePreTransferSender, uint256 balancePreTransferRecipient) = getBalanceBeforeTransfer(_msgSender(), recipient);     \r\n\r\n        /*  When buying tokens in PancakeSwap : \r\n            swapBNBForExactTokens calls this function \r\n            Hence the last argument of _transfer is set to true to indicate a buy */        \r\n        _transfer(_msgSender(), recipient, amount, true);\r\n        \r\n        updateNbHodlers(_msgSender(), balancePreTransferSender);\r\n        updateNbHodlers(recipient, balancePreTransferRecipient);\r\n        \r\n        return true;\r\n    }\r\n\r\n    function allowance(address owner, address spender) public view override returns (uint256) {\r\n        return _allowances[owner][spender];\r\n    }\r\n\r\n    function approve(address spender, uint256 amount) public override returns (bool) {\r\n        _approve(_msgSender(), spender, amount);\r\n        return true;\r\n    }\r\n\r\n\r\n    /** \r\n        @param sender    : The address of the sender\r\n               recipient : The address of the recipient\r\n               amount    : The amount of tokens that are being transfered\r\n        @notice We are updating the number of hodlers by observing the balances before and after the transfer\r\n        @return True\r\n    */\r\n    function transferFrom(address sender, address recipient, uint256 amount) public override returns (bool) {\r\n        \r\n        (uint256 balancePreTransferSender, uint256 balancePreTransferRecipient) = getBalanceBeforeTransfer(sender, recipient);     \r\n        \r\n        \r\n        /*  When selling tokens in PancakeSwap : \r\n            swapExactTokensForBNBSupportingFeeOnTransferTokens calls the transferFrom function\r\n            Hence the last argument of _transfer is set to false to indicate a sell */\r\n        _transfer(sender, recipient, amount, false);\r\n        _approve(sender, _msgSender(), _allowances[sender][_msgSender()].sub(amount, \"ERC20: transfer amount exceeds allowance\"));\r\n\r\n        updateNbHodlers(sender, balancePreTransferSender);\r\n        updateNbHodlers(recipient, balancePreTransferRecipient);\r\n             \r\n        \r\n        return true;\r\n    }\r\n    \r\n    \r\n    \r\n    // TODO : check how those functions are used\r\n    function increaseAllowance(address spender, uint256 addedValue) public virtual returns (bool) {\r\n        _approve(_msgSender(), spender, _allowances[_msgSender()][spender].add(addedValue));\r\n        return true;\r\n    }\r\n\r\n    function decreaseAllowance(address spender, uint256 subtractedValue) public virtual returns (bool) {\r\n        _approve(_msgSender(), spender, _allowances[_msgSender()][spender].sub(subtractedValue, \"ERC20: decreased allowance below zero\"));\r\n        return true;\r\n    }\r\n    \r\n    \r\n    function _approve(address owner, address spender, uint256 amount) private {\r\n        require(owner != address(0), \"ERC20: approve from the zero address\");\r\n        require(spender != address(0), \"ERC20: approve to the zero address\");\r\n\r\n        _allowances[owner][spender] = amount;\r\n        emit Approval(owner, spender, amount);\r\n    }\r\n    \r\n    /** \r\n        @param sender    : The address of the sender\r\n               recipient : The address of the recipient\r\n        @return The current balances of the sender and the recipient\r\n    */    \r\n    function getBalanceBeforeTransfer(address sender, address recipient) private view returns (uint256, uint256) {return (balanceOf(sender), balanceOf(recipient));}\r\n    \r\n    \r\n    /** \r\n        @param hodler : The address of a hodler (user)\r\n               balanceBeforeTransfer : The balance of the hodler before a transfer\r\n        @notice This function checks the balances before and after a transfer to identify new hodlers\r\n    */      \r\n    function updateNbHodlers(address hodler, uint256 balanceBeforeTransfer) private {\r\n        \r\n        // pancakeswapV2Pair should not be included in the list of hodlers\r\n        if (hodler == pancakeswapV2Pair)\r\n            return;\r\n        \r\n        /* Note that we check if the balance is very low and not zero.\r\n           This is because when someone wants to sell all his tokens, some might be left in the wallet. */\r\n        \r\n        // New hodler (his balance was very low before buying tokens)\r\n        if (balanceBeforeTransfer<=minNumTokenHodler && balanceOf(hodler)>minNumTokenHodler) \r\n            nb_hodlers = nb_hodlers + 1;\r\n            \r\n        // One hodler leaves the community (his balance is very low after selling tokens)\r\n        else if (balanceBeforeTransfer>minNumTokenHodler && balanceOf(hodler)<=minNumTokenHodler) \r\n            nb_hodlers = nb_hodlers - 1;\r\n    }\r\n    \r\n    /// @return the total number of hodlers\r\n    function getNumberOfhodler() public view returns (uint256) {return nb_hodlers;}\r\n    \r\n    \r\n    // ----------------------------------------------------- //\r\n    //                  SOFT BURN \r\n    // ----------------------------------------------------- //\r\n    \r\n    \r\n    function getAmountForLiquidity() public view returns(uint256) {\r\n    \treturn _currentTokenBalanceForLP;\r\n    }\r\n    \r\n     function getAmountForBurn() public view returns(uint256) {\r\n    \treturn _currentTokenBalanceForBurn;\r\n    }\r\n       \r\n    \r\n    function _burn(address sender, uint256 amount) external onlyOwner {\r\n        // Todo : define a custom burn function\r\n        _burnAndTakeLiquidity(amount);\r\n    }\r\n    \r\n    // There is a bonus based on the number of hodlers\r\n    // => The amount of rTokens is reduced proportionnaly\r\n    // This function can be called from outside by the owner (via _burn)\r\n    // or by the smart contract with the autoBurn function   \r\n    \r\n    \r\n    /** \r\n        @param amount : The amount to be burned and/or added to the liquidity pool\r\n        @dev Please refer to the whitepaper for more details about the mecanics of this function\r\n        @return tAmountToBurn : The calculated amount of tokens that has been soft burned\r\n                rAmountToBurn : The calculated reflected amount of tokens that will be reduced from rSupply\r\n    */      \r\n    function _burnAndTakeLiquidity(uint256 amount) private returns (uint256, uint256) {\r\n        \r\n        \r\n        // TODO : check if this works (require should check currentBurnBalance if the sender is the contract)\r\n        // TODO : need to check the real balance allocated for the burn since part og tokenBalanceForBurn goes to liquidity\r\n        require(_currentTokenBalanceForBurn >= amount, \"BaseRfiToken: burn amount exceeds balance\");\r\n\r\n        // Get the current rate\r\n        uint256 currentRate = _getRate();\r\n        \r\n        // Calculate the reflected amount \r\n        uint256 rAmount = amount.mul(currentRate);\r\n        \r\n        // Calculate the \"bonus\" that is a percentage of holders => More holders higher the bonus  \r\n        uint256 bonusHodler = (nb_hodlers.mul(100).div(MAXBONUSTOKENHODLERS));\r\n        \r\n        // Calulate the reflected amount to be burned (depending on the bonusHodler)\r\n        uint256 rAmountToBurn = bonusHodler.mul(rAmount).div(100);\r\n        \r\n        // The remaining reflected amount is kept for the liquidity\r\n        uint256 rAmountForLiquidity = rAmount - rAmountToBurn;\r\n        \r\n        // Calculate the amount of tokens to be added to the liquidity pool\r\n        uint256 tAmountForLiquidity = rAmountForLiquidity.div(currentRate);\r\n        \r\n        // Calculate the amount of tokens to be soft burned\r\n        uint256 tAmountToBurn = rAmountToBurn.div(currentRate);\r\n        \r\n        \r\n        // Keep track of the balance allocated for the autoLP    \r\n        _currentTokenBalanceForLP = _currentTokenBalanceForLP.add(tAmountForLiquidity);\r\n        \r\n        \r\n        // Keep track of the balance allocated for the autoBurn\r\n        // Amount of burn has been reduced : part of it is added to the liquidity pool\r\n        // The other part is sent to the burn address\r\n        // TODO : tokenBalanceForBurn or simply tokenBalance ?\r\n        _currentTokenBalanceForBurn.sub(amount);\r\n\r\n        // Remove the amount from this contract's balance and send it the burn contract \r\n        // Note that only tOwned is modified since both this contract and the burn contract will always be excluled from rewards.\r\n        _tOwned[address(this)] = _tOwned[address(this)].sub(tAmountToBurn);\r\n        _tOwned[BURNADDRESS] = _tOwned[BURNADDRESS].add(tAmountToBurn);\r\n            \r\n    \r\n\r\n        // Emit the event so that the burn address balance is updated \r\n        emit Transfer(address(this), BURNADDRESS, amount);\r\n        \r\n        return (tAmountToBurn, rAmountToBurn);\r\n    }    \r\n    \r\n\r\n\r\n    /// @return the total fee \r\n    function totalFees() external view returns (uint256) {return _tFeeTotal;}\r\n    \r\n    /// @return the total buyer fee\r\n    function totalBuyerFees() external view returns (uint256) {return _tBuyerFeeTotal;}\r\n    \r\n    /// @return the total seller fee\r\n    function totalSellerFees() external view returns (uint256) {return _tSellerFeeTotal;}\r\n    \r\n    /// @return the total burn \r\n    function totalBurn() external view returns (uint256) {return _tBurnTotal;}\r\n\r\n\r\n    /** @param dxSale : boolean \r\n        @dev This function set the dxSale state variable to enable/disable fees */\r\n    function setDXSale(bool dxSale) external onlyOwner {_dxSale = dxSale;} \r\n\r\n\r\n    /** @param rAmount : The reflected amount to be converted back to tokens\r\n        @return the amount of token from the reflected amount balance */\r\n    function tokenFromReflection(uint256 rAmount) public view returns(uint256) {\r\n        require(rAmount <= _rTotal, \"Amount must be less than total reflections\");\r\n        uint256 currentRate =  _getRate();\r\n        return rAmount.div(currentRate);\r\n    }\r\n\r\n\r\n\r\n\r\n    /// @param account : The to be excluded from rewards\r\n    function excludeFromReward(address account) public onlyOwner() {\r\n        require(!_isExcludedFromReward[account], \"Account is already excluded\");\r\n        \r\n        // If the account has som reflected tokens => convert it to tokens\r\n        if(_rOwned[account] > 0) {\r\n            _tOwned[account] = tokenFromReflection(_rOwned[account]);\r\n        }\r\n        \r\n        // Save it to the state variables\r\n        _isExcludedFromReward[account] = true;\r\n        _excluded.push(account);\r\n    }\r\n\r\n    /// @param account : The to be included in rewards\r\n    function includeInReward(address account) external onlyOwner() {\r\n        \r\n        // Prevent owner, burn and this contract to be included in rewards\r\n        require(account!=owner(), \"Owner cannot be included in rewards !\");\r\n        require(account!=address(this), \"The token contract cannot be included in rewards !\");\r\n        require(account!=BURNADDRESS, \"The burn address cannot be included in rewards !\");\r\n        \r\n        require(_isExcludedFromReward[account], \"Account is not excluded\");\r\n        \r\n        // Save it to the state variables\r\n        for (uint256 i = 0; i < _excluded.length; i++) {\r\n            if (_excluded[i] == account) {\r\n                _excluded[i] = _excluded[_excluded.length - 1];\r\n                _tOwned[account] = 0;\r\n                _isExcludedFromReward[account] = false;\r\n                _excluded.pop();\r\n                break;\r\n            }\r\n        }\r\n    }\r\n    \r\n    /// @return true if the account is excluded from rewards \r\n    function isExcludedFromReward(address account) public view returns (bool) {return _isExcludedFromReward[account];}\r\n\r\n\r\n    /// @notice This function exclude from fee the account given in parameter\r\n    function excludeFromFee(address account) public onlyOwner {_isExcludedFromFee[account] = true;}\r\n    \r\n    /// @notice This function include from fee the account given in parameter\r\n    function includeInFee(address account) public onlyOwner {\r\n        \r\n        // Prevent owner, burn and this contract to be included in fees\r\n        require(account!=owner(), \"Owner cannot be included in fee !\");\r\n        require(account!=address(this), \"The token contract cannot be included in fee !\");\r\n        require(account!=BURNADDRESS, \"The burn address cannot be included in fee !\");\r\n        \r\n        _isExcludedFromFee[account] = false;\r\n    }\r\n    \r\n    /// @return true if the account is excluded from fees \r\n    function isExcludedFromFee(address account) public view returns(bool) {return _isExcludedFromFee[account];}\r\n\r\n\r\n    // ----------------------------------------------------- //\r\n    // Setter functions that can be called by the owner only\r\n    // ----------------------------------------------------- //\r\n\r\n    function setMaxTxPercent(uint256 maxTxPercent) external onlyOwner() {\r\n        _maxTxAmount = _tTotal.mul(maxTxPercent).div(100); \r\n    }\r\n    \r\n    \r\n    function setBuyerFee(uint256 buyerFee) external onlyOwner() {\r\n        // BuyerFee is in per-mille\r\n        // Note that Owner cannot set a buyer fee higher than 4%\r\n        if (buyerFee > MAXBUYERFEE) buyerFee = MAXBUYERFEE;\r\n        _buyerFee = buyerFee;\r\n    }     \r\n    \r\n    function setSellerFee(uint256 sellerFee) external onlyOwner() {\r\n        // SellerFee is in per-mille\r\n        // Note that Owner cannot set a seller fee higher than 9%\r\n        if (sellerFee > MAXSELLERFEE) sellerFee = MAXSELLERFEE;        \r\n        _sellerFee = sellerFee;\r\n    } \r\n    \r\n    \r\n    function setSwapAndLiquifyEnabled(bool _enabled) external onlyOwner {\r\n        swapAndLiquifyEnabled = _enabled;\r\n        emit SwapAndLiquifyEnabledUpdated(_enabled);\r\n    }\r\n    \r\n    \r\n    function setBuyBackEnabled(bool _enabled) external onlyOwner {\r\n        BuyBackEnabled = _enabled;\r\n        emit BuyBackEnabledUpdated(_enabled);\r\n    }    \r\n    \r\n    \r\n\r\n    function _takeLiquidity(uint256 tLiquidity) private {\r\n        uint256 currentRate =  _getRate();\r\n        uint256 rLiquidity = tLiquidity.mul(currentRate);\r\n        _rOwned[address(this)] = _rOwned[address(this)].add(rLiquidity);\r\n        if(_isExcludedFromReward[address(this)])\r\n            _tOwned[address(this)] = _tOwned[address(this)].add(tLiquidity);\r\n            \r\n        // Keep track of the balance allocated for the autoLP\r\n        _currentTokenBalanceForLP = _currentTokenBalanceForLP.add(tLiquidity);\r\n    }\r\n    \r\n    function _autoBurn(uint256 tAmount) private {\r\n        (uint256 tAmountBurned, uint256 rAmountBurned) = _burnAndTakeLiquidity(tAmount);\r\n        _rTotal = _rTotal.sub(rAmountBurned);\r\n        _tBurnTotal = _tBurnTotal.add(tAmountBurned);\r\n    }\r\n\r\n    function _reflectFee(uint256 rFee, uint256 tFee) private {\r\n        _rTotal = _rTotal.sub(rFee);\r\n        _tFeeTotal = _tFeeTotal.add(tFee);\r\n    }\r\n\r\n\r\n    function _getValues(uint256 tAmount, bool isBuying) private returns (uint256, uint256, uint256, uint256, uint256, uint256) {\r\n        uint256 tTransferFee;\r\n        if (isBuying) {\r\n            tTransferFee = calculateBuyerFee(tAmount);\r\n            _tBuyerFeeTotal = _tBuyerFeeTotal.add(tTransferFee);\r\n        }\r\n        else {\r\n            tTransferFee = calculateSellerFee(tAmount);\r\n            _tSellerFeeTotal = _tSellerFeeTotal.add(tTransferFee);\r\n        }\r\n        \r\n        uint256 tTransferAmount = tAmount.sub(tTransferFee);\r\n        \r\n        /* Transfer fees are split in half:\r\n            _ First half will be used to add liquidity\r\n            _ Second half will be used to as static reward to all token HODLers */\r\n        uint256 tLiquidityFee = tTransferFee.div(2);\r\n        uint256 tRewardFee = tTransferFee.div(2);\r\n        \r\n        \r\n        // Calculate reflected amounts\r\n        uint256 currentRate = _getRate();\r\n        uint256 rAmount = tAmount.mul(currentRate);\r\n        uint256 rRewardFee = tRewardFee.mul(currentRate);\r\n        uint256 rLiquidityFee = tLiquidityFee.mul(currentRate);\r\n        uint256 rTransferAmount = rAmount.sub(rRewardFee).sub(rLiquidityFee);\r\n\r\n        return (rAmount, rTransferAmount, rRewardFee, tTransferAmount, tRewardFee, tLiquidityFee);\r\n    }    \r\n\r\n\r\n    function _getRate() private view returns(uint256) {\r\n        (uint256 rSupply, uint256 tSupply) = _getCurrentSupply();\r\n        return rSupply.div(tSupply);\r\n    }\r\n\r\n    function _getCurrentSupply() private view returns(uint256, uint256) {\r\n        uint256 rSupply = _rTotal;\r\n        uint256 tSupply = _tTotal;  \r\n        \r\n        /* To get currentSupply for rate calculation, we need to remove the supply from \r\n           excluded accounts. Indeed, as you can see in the transfer functions,\r\n           even though they are excluded from rewards, they still receive rTokens as well as tTokens. */\r\n        for (uint256 i = 0; i < _excluded.length; i++) {\r\n            if (_rOwned[_excluded[i]] > rSupply || _tOwned[_excluded[i]] > tSupply) return (_rTotal, _tTotal);\r\n            rSupply = rSupply.sub(_rOwned[_excluded[i]]);\r\n            tSupply = tSupply.sub(_tOwned[_excluded[i]]);\r\n        }\r\n        \r\n        // If rSupply (more or less equals rTotal, that has been reduced with the fee reflection) \r\n        // TODO : check what happen when rSupply is 0. Will the static reward stop one day ?\r\n        if (rSupply < _rTotal.div(_tTotal)) return (_rTotal, _tTotal);\r\n        return (rSupply, tSupply);\r\n    }\r\n    \r\n\r\n    function calculateBuyerFee(uint256 _amount) private view returns (uint256) {return _amount.mul(_buyerFee).div(PERMILLEDIVISOR);}\r\n\r\n    function calculateSellerFee(uint256 _amount) private view returns (uint256) {return _amount.mul(_sellerFee).div(PERMILLEDIVISOR);}\r\n        \r\n    \r\n    function removeAllFee() private {\r\n        if(_buyerFee == 0 && _sellerFee == 0) return;\r\n        \r\n        _previousBuyerFee = _buyerFee;\r\n        _previousSellerFee = _sellerFee;\r\n\r\n        _buyerFee = 0;\r\n        _sellerFee = 0;\r\n    }\r\n    \r\n    function restoreAllFee() private {\r\n        _buyerFee = _previousBuyerFee;\r\n        _sellerFee = _previousSellerFee;\r\n    }\r\n    \r\n\r\n\r\n    \r\n    \r\n\r\n  \r\n    \r\n     //to receive BNB from pancakeswapV2Router when swapping\r\n    receive() external payable {}    \r\n\r\n    function _transfer(address from,address to, uint256 amount, bool isBuying) private {\r\n        \r\n        require(from != address(0), \"ERC20: transfer from the zero address\");\r\n        require(to != address(0), \"ERC20: transfer to the zero address\");\r\n        require(amount > 0, \"Transfer amount must be greater than zero\");\r\n        \r\n        if(from != owner() && to != owner() && !_dxSale)\r\n            require(amount <= _maxTxAmount, \"Transfer amount exceeds the maxTxAmount.\");\r\n\r\n\r\n\r\n        /************************************************************************\r\n        ************************* Auto LP ***************************************\r\n        *************************************************************************/\r\n\r\n\r\n        // Get the number of tokens available for the auto LP (removing the supply for the autoBurn)\r\n        uint256 contractTokenBalance = _currentTokenBalanceForLP;\r\n        \r\n        if(contractTokenBalance >= _maxTxAmount)\r\n            contractTokenBalance = _maxTxAmount;\r\n\r\n        /* 1) Check if the token balance of this contract is over the min number of\r\n              tokens that we need to initiate a swap + liquidity add.\r\n           2) Check also that we are not already in a liquidity event.\r\n           3) Lastly, check if the sender is not pancakeswap pair. */        \r\n        if (contractTokenBalance >= numTokensSellToAddToLiquidity &&\r\n            !inSwapAndLiquify &&\r\n            //from != pancakeswapV2Pair &&\r\n            swapAndLiquifyEnabled)\r\n        {\r\n            // add liquidity\r\n            swapAndLiquify(numTokensSellToAddToLiquidity);\r\n        }\r\n\r\n\r\n        /************************************************************************\r\n        ************************* Auto Buyback **********************************\r\n        *************************************************************************/\r\n        \r\n        // TODO : Check the amount of BNB is not too high (maxTrxAmount)\r\n        // The amount of BNB should be small (other idea wa to use getAmountsOut mais les reserves semblent compliqus)\r\n        // TODO : Check if there is a small amount for fees (check swap function)\r\n        \r\n        uint256 contractBNBBalance = address(this).balance;\r\n        \r\n        /* 1) Check if the BNB balance of this contract is over the min number of\r\n              BNB that we need to initiate a buyback.\r\n           2) Check also that we are not already in a buyback event.\r\n           3) Lastly, check if the sender is not pancakeswap pair. */        \r\n        if (contractBNBBalance >= numBNBSellToBuyBack &&\r\n            !inBuyBack &&\r\n            //from != pancakeswapV2Pair &&\r\n            BuyBackEnabled) {\r\n            // BuyBack tokens with all available BNBs\r\n            uint256 bnbAmount = contractBNBBalance - minAmountToKeepForFees;\r\n            swapBNBForTokens(bnbAmount);\r\n        }\r\n        \r\n        \r\n        // TODO : need to know how many token are added to the contract\r\n        \r\n        /************************************************************************\r\n        ************************* Transfer **************************************\r\n        *************************************************************************/          \r\n\r\n        //indicates if fee should be deducted from transfer\r\n        bool takeFee = true;\r\n        \r\n        // Do not deduct fees if any account is excluded from fee or we are in dxSale\r\n        if(_isExcludedFromFee[from] || _isExcludedFromFee[to] || _dxSale){\r\n            takeFee = false;\r\n        }\r\n        \r\n        // transfer amount, it will take fees\r\n        _tokenTransfer(from, to, amount, takeFee, isBuying);\r\n    }\r\n    \r\n    \r\n    function swapBNBForTokens(uint256 bnbAmount) private lockTheBuyBack{\r\n        // generate the pancakeswap pair path of token -> WBNB\r\n        address[] memory path = new address[](2);\r\n        //path[0] = pancakeswapV2Router.WBNB(); \r\n        path[1] = address(this);\r\n\r\n        // make the swap\r\n        pancakeswapV2Router.swapETHForExactTokens{value:bnbAmount}( // ETH is BNB\r\n            0, // Any amount\r\n            path,\r\n            address(this),\r\n            block.timestamp);\r\n        \r\n        emit BNBBuyBack(bnbAmount);  // TODO : need to know how many tokens were bought, all the tokens should be burned\r\n    }\r\n    \r\n  \r\n\r\n    function swapAndLiquify(uint256 contractTokenBalance) private lockTheSwap {\r\n        // split the contract balance into halves\r\n        uint256 half = contractTokenBalance.div(2);\r\n        uint256 otherHalf = contractTokenBalance.sub(half);\r\n\r\n        // capture the contract's current BNB balance.\r\n        // this is so that we can capture exactly the amount of BNB that the\r\n        // swap creates, and not make the liquidity event include any BNB that\r\n        // has been manually sent to the contract\r\n        uint256 initialBalance = address(this).balance;\r\n\r\n        // swap tokens for BNB\r\n        swapTokensForBNB(half); \r\n\r\n        // how much BNB did we just swap into?\r\n        uint256 newBalance = address(this).balance.sub(initialBalance);\r\n\r\n        // add liquidity to pancakeswap\r\n        addLiquidity(otherHalf, newBalance);\r\n        \r\n        emit SwapAndLiquify(half, newBalance, otherHalf);\r\n    }\r\n\r\n    function swapTokensForBNB(uint256 tokenAmount) private {\r\n        // generate the pancakeswap pair path of token -> WBNB\r\n        address[] memory path = new address[](2);\r\n        path[0] = address(this);\r\n        path[1] = pancakeswapV2Router.WETH(); \r\n        \r\n\r\n        _approve(address(this), address(pancakeswapV2Router), tokenAmount);\r\n\r\n        // make the swap  ETH is BNB\r\n        pancakeswapV2Router.swapExactTokensForETHSupportingFeeOnTransferTokens (\r\n            tokenAmount,\r\n            0, // accept any amount of BNB\r\n            path,\r\n            address(this),\r\n            block.timestamp\r\n        );\r\n    }\r\n\r\n    function addLiquidity(uint256 tokenAmount, uint256 bnbAmount) private {\r\n        // approve token transfer to cover all possible scenarios\r\n        _approve(address(this), address(pancakeswapV2Router), tokenAmount);\r\n\r\n        // add the liquidity\r\n        pancakeswapV2Router.addLiquidityETH{value: bnbAmount}( // ETH is BNB\r\n            address(this), \r\n            tokenAmount,\r\n            0, // slippage is unavoidable\r\n            0, // slippage is unavoidable\r\n            address(this), // LP tokens will be kept in this smart contract\r\n            block.timestamp\r\n        );\r\n    }\r\n    \r\n \r\n\r\n\r\n    //this method is responsible for taking all fee, if takeFee is true\r\n    function _tokenTransfer(address sender, address recipient, uint256 amount, bool takeFee, bool isBuying) private {\r\n        if(!takeFee)\r\n            removeAllFee();\r\n            \r\n        (uint256 rAmount, uint256 rTransferAmount, uint256 rFee, uint256 tTransferAmount, uint256 tFee, uint256 tLiquidity) = _getValues(amount, isBuying);\r\n        _rOwned[sender] = _rOwned[sender].sub(rAmount);\r\n        _rOwned[recipient] = _rOwned[recipient].add(rTransferAmount);      \r\n        \r\n        if (_isExcludedFromReward[sender])  _tOwned[sender] = _tOwned[sender].sub(amount);\r\n        if (_isExcludedFromReward[recipient]) _tOwned[recipient] = _tOwned[recipient].add(tTransferAmount);\r\n\r\n        \r\n        _takeLiquidity(tLiquidity);        \r\n        _reflectFee(rFee, tFee);\r\n        \r\n        // TODO : need to check for enough token amount to burn (it will be zero at one moment)\r\n        _autoBurn(tFee);\r\n        \r\n        if(!takeFee)\r\n            restoreAllFee();\r\n    }\r\n\r\n\r\n}\r\n",
  "sourcePath": "/Users/pilu/Desktop/Data/BSC SC/StrongHODL_test1/contracts/StrongHodl.sol",
  "compiler": {
    "name": "solc",
    "version": "0.6.12+commit.27d51765.Emscripten.clang"
  },
  "schemaVersion": "3.4.6",
  "updatedAt": "2022-04-25T19:03:09.003Z",
  "devdoc": {
    "kind": "dev",
    "methods": {
      "allowance(address,address)": {
        "details": "Returns the remaining number of tokens that `spender` will be allowed to spend on behalf of `owner` through {transferFrom}. This is zero by default. This value changes when {approve} or {transferFrom} are called."
      },
      "approve(address,uint256)": {
        "details": "Sets `amount` as the allowance of `spender` over the caller's tokens. Returns a boolean value indicating whether the operation succeeded. IMPORTANT: Beware that changing an allowance with this method brings the risk that someone may use both the old and the new allowance by unfortunate transaction ordering. One possible solution to mitigate this race condition is to first reduce the spender's allowance to 0 and set the desired value afterwards: https://github.com/ethereum/EIPs/issues/20#issuecomment-263524729 Emits an {Approval} event."
      },
      "balanceOf(address)": {
        "details": "The balance is either obtained from tOwned or it is the reflection of the rOwned balance.",
        "params": {
          "account": ": The address we will use to know the balance "
        },
        "returns": {
          "_0": "the balance of the account"
        }
      },
      "decimals()": {
        "returns": {
          "_0": "the decimals of the token"
        }
      },
      "excludeFromReward(address)": {
        "params": {
          "account": ": The to be excluded from rewards"
        }
      },
      "getNumberOfhodler()": {
        "returns": {
          "_0": "the total number of hodlers"
        }
      },
      "includeInReward(address)": {
        "params": {
          "account": ": The to be included in rewards"
        }
      },
      "isExcludedFromFee(address)": {
        "returns": {
          "_0": "true if the account is excluded from fees "
        }
      },
      "isExcludedFromReward(address)": {
        "returns": {
          "_0": "true if the account is excluded from rewards "
        }
      },
      "name()": {
        "returns": {
          "_0": "the name of the token"
        }
      },
      "owner()": {
        "details": "Returns the address of the current owner."
      },
      "renounceOwnership()": {
        "details": "Leaves the contract without owner. It will not be possible to call `onlyOwner` functions anymore. Can only be called by the current owner. NOTE: Renouncing ownership will leave the contract without an owner, thereby removing any functionality that is only available to the owner."
      },
      "setDXSale(bool)": {
        "details": "This function set the dxSale state variable to enable/disable fees ",
        "params": {
          "dxSale": ": boolean "
        }
      },
      "symbol()": {
        "returns": {
          "_0": "the symbol of the token"
        }
      },
      "tokenFromReflection(uint256)": {
        "params": {
          "rAmount": ": The reflected amount to be converted back to tokens"
        },
        "returns": {
          "_0": "the amount of token from the reflected amount balance "
        }
      },
      "totalBurn()": {
        "returns": {
          "_0": "the total burn "
        }
      },
      "totalBuyerFees()": {
        "returns": {
          "_0": "the total buyer fee"
        }
      },
      "totalFees()": {
        "returns": {
          "_0": "the total fee "
        }
      },
      "totalSellerFees()": {
        "returns": {
          "_0": "the total seller fee"
        }
      },
      "totalSupply()": {
        "returns": {
          "_0": "the total supply of the token"
        }
      },
      "transfer(address,uint256)": {
        "params": {
          "amount": ": The amount of tokens that are being transfered",
          "recipient": ": The address of the recipient"
        },
        "returns": {
          "_0": "True"
        }
      },
      "transferFrom(address,address,uint256)": {
        "params": {
          "sender": ": The address of the sender recipient : The address of the recipient amount    : The amount of tokens that are being transfered"
        },
        "returns": {
          "_0": "True"
        }
      },
      "transferOwnership(address)": {
        "details": "Transfers ownership of the contract to a new account (`newOwner`). Can only be called by the current owner."
      }
    },
    "version": 1
  },
  "userdoc": {
    "kind": "user",
    "methods": {
      "excludeFromFee(address)": {
        "notice": "This function exclude from fee the account given in parameter"
      },
      "includeInFee(address)": {
        "notice": "This function include from fee the account given in parameter"
      },
      "transfer(address,uint256)": {
        "notice": "We are updating the number of hodlers by observing the balances before and after the transfer"
      },
      "transferFrom(address,address,uint256)": {
        "notice": "We are updating the number of hodlers by observing the balances before and after the transfer"
      }
    },
    "version": 1
  }
}